{
  "contractName": "Bank",
  "abi": [
    {
      "anonymous": false,
      "inputs": [
        {
          "indexed": true,
          "internalType": "string[]",
          "name": "tokenNames",
          "type": "string[]"
        },
        {
          "indexed": true,
          "internalType": "address[]",
          "name": "tokenAddresses",
          "type": "address[]"
        },
        {
          "indexed": true,
          "internalType": "address",
          "name": "sender",
          "type": "address"
        }
      ],
      "name": "AllowedTokensAdded",
      "type": "event"
    },
    {
      "anonymous": false,
      "inputs": [
        {
          "indexed": true,
          "internalType": "address",
          "name": "token",
          "type": "address"
        },
        {
          "indexed": true,
          "internalType": "address",
          "name": "priceFeed",
          "type": "address"
        }
      ],
      "name": "NewPriceFeedContract",
      "type": "event"
    },
    {
      "anonymous": false,
      "inputs": [
        {
          "indexed": true,
          "internalType": "address",
          "name": "previousOwner",
          "type": "address"
        },
        {
          "indexed": true,
          "internalType": "address",
          "name": "newOwner",
          "type": "address"
        }
      ],
      "name": "OwnershipTransferred",
      "type": "event"
    },
    {
      "inputs": [
        {
          "internalType": "string",
          "name": "",
          "type": "string"
        }
      ],
      "name": "allowedTokens",
      "outputs": [
        {
          "internalType": "address",
          "name": "",
          "type": "address"
        }
      ],
      "stateMutability": "view",
      "type": "function"
    },
    {
      "inputs": [
        {
          "internalType": "address",
          "name": "",
          "type": "address"
        },
        {
          "internalType": "address",
          "name": "",
          "type": "address"
        }
      ],
      "name": "balances",
      "outputs": [
        {
          "internalType": "uint256",
          "name": "",
          "type": "uint256"
        }
      ],
      "stateMutability": "view",
      "type": "function"
    },
    {
      "inputs": [],
      "name": "owner",
      "outputs": [
        {
          "internalType": "address",
          "name": "",
          "type": "address"
        }
      ],
      "stateMutability": "view",
      "type": "function"
    },
    {
      "inputs": [],
      "name": "renounceOwnership",
      "outputs": [],
      "stateMutability": "nonpayable",
      "type": "function"
    },
    {
      "inputs": [
        {
          "internalType": "address",
          "name": "",
          "type": "address"
        }
      ],
      "name": "tokenPriceFeedMapping",
      "outputs": [
        {
          "internalType": "address",
          "name": "",
          "type": "address"
        }
      ],
      "stateMutability": "view",
      "type": "function"
    },
    {
      "inputs": [
        {
          "internalType": "address",
          "name": "newOwner",
          "type": "address"
        }
      ],
      "name": "transferOwnership",
      "outputs": [],
      "stateMutability": "nonpayable",
      "type": "function"
    },
    {
      "inputs": [
        {
          "internalType": "string[]",
          "name": "tokenNames",
          "type": "string[]"
        },
        {
          "internalType": "address[]",
          "name": "tokenAddresses",
          "type": "address[]"
        }
      ],
      "name": "addAllowedTokens",
      "outputs": [],
      "stateMutability": "nonpayable",
      "type": "function"
    },
    {
      "inputs": [
        {
          "internalType": "address",
          "name": "_token",
          "type": "address"
        },
        {
          "internalType": "address",
          "name": "_priceFeed",
          "type": "address"
        }
      ],
      "name": "setPriceFeedContract",
      "outputs": [],
      "stateMutability": "nonpayable",
      "type": "function"
    },
    {
      "inputs": [
        {
          "internalType": "address",
          "name": "_token",
          "type": "address"
        }
      ],
      "name": "getTokenValue",
      "outputs": [
        {
          "internalType": "uint256",
          "name": "",
          "type": "uint256"
        },
        {
          "internalType": "uint256",
          "name": "",
          "type": "uint256"
        }
      ],
      "stateMutability": "view",
      "type": "function"
    },
    {
      "inputs": [
        {
          "internalType": "uint256",
          "name": "_amountIn",
          "type": "uint256"
        },
        {
          "internalType": "string",
          "name": "_inputToken",
          "type": "string"
        },
        {
          "internalType": "string",
          "name": "_outputToken",
          "type": "string"
        }
      ],
      "name": "convertInput2Output",
      "outputs": [
        {
          "internalType": "uint256",
          "name": "",
          "type": "uint256"
        }
      ],
      "stateMutability": "view",
      "type": "function"
    },
    {
      "inputs": [
        {
          "internalType": "uint256",
          "name": "value",
          "type": "uint256"
        },
        {
          "internalType": "string",
          "name": "token",
          "type": "string"
        }
      ],
      "name": "deposit",
      "outputs": [],
      "stateMutability": "nonpayable",
      "type": "function"
    },
    {
      "inputs": [
        {
          "internalType": "string",
          "name": "token",
          "type": "string"
        }
      ],
      "name": "getTokenBalance",
      "outputs": [
        {
          "internalType": "uint256",
          "name": "",
          "type": "uint256"
        }
      ],
      "stateMutability": "view",
      "type": "function"
    },
    {
      "inputs": [],
      "name": "getBankBalanceInUSD",
      "outputs": [
        {
          "internalType": "uint256",
          "name": "",
          "type": "uint256"
        }
      ],
      "stateMutability": "view",
      "type": "function"
    },
    {
      "inputs": [
        {
          "internalType": "string",
          "name": "token",
          "type": "string"
        },
        {
          "internalType": "uint256",
          "name": "amount",
          "type": "uint256"
        }
      ],
      "name": "withdraw",
      "outputs": [],
      "stateMutability": "nonpayable",
      "type": "function"
    },
    {
      "inputs": [
        {
          "internalType": "string",
          "name": "token",
          "type": "string"
        },
        {
          "internalType": "uint256",
          "name": "amount",
          "type": "uint256"
        },
        {
          "internalType": "address",
          "name": "beneficiary",
          "type": "address"
        }
      ],
      "name": "send",
      "outputs": [],
      "stateMutability": "nonpayable",
      "type": "function"
    }
  ],
  "bytecode": "0x608060405234801561001057600080fd5b5061001a3361001f565b61006f565b600080546001600160a01b038381166001600160a01b0319831681178455604051919092169283917f8be0079c531659141344cd1fd0a4f28419497f9722a3daafe3b4186f6b6457e09190a35050565b6115ce8061007e6000396000f3fe608060405234801561001057600080fd5b50600436106100f55760003560e01c80638da5cb5b11610097578063f1215d2511610066578063f1215d251461020e578063f1c5d6c214610221578063f2fde38b14610249578063fb9576da1461025c57600080fd5b80638da5cb5b146101b7578063a0efb218146101c8578063a113a5a9146101d0578063c23f001f146101e357600080fd5b806330b39a62116100d357806330b39a621461017657806349e102e214610189578063715018a61461019c578063877dd39d146101a457600080fd5b8063025abd58146100fa5780630d40e2b31461012057806327927b3e14610135575b600080fd5b61010d610108366004610eb1565b610290565b6040519081526020015b60405180910390f35b61013361012e366004610fa0565b610322565b005b61015e610143366004611074565b6005602052600090815260409020546001600160a01b031681565b6040516001600160a01b039091168152602001610117565b610133610184366004611096565b6104d3565b6101336101973660046110db565b610659565b6101336107e2565b6101336101b2366004611132565b610818565b6000546001600160a01b031661015e565b61010d610899565b61010d6101de366004611165565b6109ab565b61010d6101f1366004611132565b600160209081526000928352604080842090915290825290205481565b61013361021c3660046111d2565b610a3c565b61023461022f366004611074565b610b75565b60408051928352602083019190915201610117565b610133610257366004611074565b610c76565b61015e61026a366004610eb1565b80516020818301810180516002825292820191909301209152546001600160a01b031681565b6000806001600160a01b03166002836040516102ac919061123b565b908152604051908190036020019020546001600160a01b031614156102d057600080fd5b3360009081526001602052604080822090519091906002906102f390869061123b565b9081526040805160209281900383019020546001600160a01b0316835290820192909252016000205492915050565b6000546001600160a01b031633146103555760405162461bcd60e51b815260040161034c90611257565b60405180910390fd5b805182511461036357600080fd5b60005b82518110156104785760008382815181106103835761038361128c565b6020026020010151905060008383815181106103a1576103a161128c565b60200260200101519050806002836040516103bc919061123b565b9081526040516020918190038201902080546001600160a01b03199081166001600160a01b03948516179091556003805460018181019092557fc2575a0e9e593c00f959f8c92f12db2869c3395a3b0502d05e2516446f71f85b0180549092169385169390931790556004805492830181556000528351610462927f8a35acfbc15ff81a39ae7d344fd709f28e8600b4aa8c65c6b64bfe7fe36bd19b0191850190610d61565b5050508080610470906112b8565b915050610366565b5060405133906104899083906112d3565b60405180910390208360405161049f9190611312565b604051908190038120907f3a666b286cd7f0b1938fdc87e1147d56462ffe518db5b0c990310fa07c3288e690600090a45050565b3360009081526001602052604080822090518392906002906104f690879061123b565b9081526040805160209281900383019020546001600160a01b0316835290820192909252016000205410156105645760405162461bcd60e51b8152602060048201526014602482015273496e73756666696369656e742042616c616e636560601b604482015260640161034c565b33600090815260016020526040808220905183929060029061058790879061123b565b9081526040805160209281900383019020546001600160a01b031683529082019290925201600090812080549091906105c1908490611352565b90915550506040516002906105d790849061123b565b9081526040519081900360200181205463a9059cbb60e01b8252336004830152602482018390526001600160a01b03169063a9059cbb906044016020604051808303816000875af1158015610630573d6000803e3d6000fd5b505050506040513d601f19601f820116820180604052508101906106549190611369565b505050565b33600090815260016020526040808220905184929060029061067c90889061123b565b9081526040805160209281900383019020546001600160a01b0316835290820192909252016000205410156106ea5760405162461bcd60e51b8152602060048201526014602482015273496e73756666696369656e742042616c616e636560601b604482015260640161034c565b33600090815260016020526040808220905184929060029061070d90889061123b565b9081526040805160209281900383019020546001600160a01b03168352908201929092520160009081208054909190610747908490611352565b909155505060405160029061075d90859061123b565b9081526040519081900360200181205463a9059cbb60e01b82526001600160a01b03838116600484015260248301859052169063a9059cbb906044016020604051808303816000875af11580156107b8573d6000803e3d6000fd5b505050506040513d601f19601f820116820180604052508101906107dc9190611369565b50505050565b6000546001600160a01b0316331461080c5760405162461bcd60e51b815260040161034c90611257565b6108166000610d11565b565b6000546001600160a01b031633146108425760405162461bcd60e51b815260040161034c90611257565b6001600160a01b0382811660008181526005602052604080822080546001600160a01b0319169486169485179055517fb16d409940dc728462f5982a32c1fa960a0f3b7aec11139cf7787b7f7607cb619190a35050565b60008060005b6003548110156109a5576000806108dc600384815481106108c2576108c261128c565b6000918252602090912001546001600160a01b0316610b75565b9150915060006001600160a01b0316600384815481106108fe576108fe61128c565b6000918252602090912001546001600160a01b0316146109905761092381600a611471565b33600090815260016020526040812060038054869391908890811061094a5761094a61128c565b60009182526020808320909101546001600160a01b03168352820192909252604001902054610979919061147d565b610983919061149c565b61098d90856114be565b93505b5050808061099d906112b8565b91505061089f565b50919050565b60008060006109e16002866040516109c3919061123b565b908152604051908190036020019020546001600160a01b0316610b75565b909250905060006109f382600a611471565b6109fd848961147d565b610a07919061149c565b90506000610a1e6002876040516109c3919061123b565b509050806000610a2e828561149c565b9a9950505050505050505050565b60006001600160a01b0316600282604051610a57919061123b565b908152604051908190036020019020546001600160a01b03161415610a7b57600080fd5b600281604051610a8b919061123b565b908152604051908190036020018120546323b872dd60e01b8252336004830152306024830152604482018490526001600160a01b0316906323b872dd906064016020604051808303816000875af1158015610aea573d6000803e3d6000fd5b505050506040513d601f19601f82011682018060405250810190610b0e9190611369565b50336000908152600160205260408082209051849290600290610b3290869061123b565b9081526040805160209281900383019020546001600160a01b03168352908201929092520160009081208054909190610b6c9084906114be565b90915550505050565b6001600160a01b03808216600090815260056020526040808220548151633fabe5a360e21b815291519293849391169182918491839163feaf968c9160048082019260a0929091908290030181865afa158015610bd6573d6000803e3d6000fd5b505050506040513d601f19601f82011682018060405250810190610bfa91906114f0565b5050509150506000826001600160a01b031663313ce5676040518163ffffffff1660e01b8152600401602060405180830381865afa158015610c40573d6000803e3d6000fd5b505050506040513d601f19601f82011682018060405250810190610c649190611540565b919760ff909216965090945050505050565b6000546001600160a01b03163314610ca05760405162461bcd60e51b815260040161034c90611257565b6001600160a01b038116610d055760405162461bcd60e51b815260206004820152602660248201527f4f776e61626c653a206e6577206f776e657220697320746865207a65726f206160448201526564647265737360d01b606482015260840161034c565b610d0e81610d11565b50565b600080546001600160a01b038381166001600160a01b0319831681178455604051919092169283917f8be0079c531659141344cd1fd0a4f28419497f9722a3daafe3b4186f6b6457e09190a35050565b828054610d6d90611563565b90600052602060002090601f016020900481019282610d8f5760008555610dd5565b82601f10610da857805160ff1916838001178555610dd5565b82800160010185558215610dd5579182015b82811115610dd5578251825591602001919060010190610dba565b50610de1929150610de5565b5090565b5b80821115610de15760008155600101610de6565b634e487b7160e01b600052604160045260246000fd5b604051601f8201601f1916810167ffffffffffffffff81118282101715610e3957610e39610dfa565b604052919050565b600082601f830112610e5257600080fd5b813567ffffffffffffffff811115610e6c57610e6c610dfa565b610e7f601f8201601f1916602001610e10565b818152846020838601011115610e9457600080fd5b816020850160208301376000918101602001919091529392505050565b600060208284031215610ec357600080fd5b813567ffffffffffffffff811115610eda57600080fd5b610ee684828501610e41565b949350505050565b600067ffffffffffffffff821115610f0857610f08610dfa565b5060051b60200190565b80356001600160a01b0381168114610f2957600080fd5b919050565b600082601f830112610f3f57600080fd5b81356020610f54610f4f83610eee565b610e10565b82815260059290921b84018101918181019086841115610f7357600080fd5b8286015b84811015610f9557610f8881610f12565b8352918301918301610f77565b509695505050505050565b60008060408385031215610fb357600080fd5b823567ffffffffffffffff80821115610fcb57600080fd5b818501915085601f830112610fdf57600080fd5b81356020610fef610f4f83610eee565b82815260059290921b8401810191818101908984111561100e57600080fd5b8286015b848110156110465780358681111561102a5760008081fd5b6110388c86838b0101610e41565b845250918301918301611012565b509650508601359250508082111561105d57600080fd5b5061106a85828601610f2e565b9150509250929050565b60006020828403121561108657600080fd5b61108f82610f12565b9392505050565b600080604083850312156110a957600080fd5b823567ffffffffffffffff8111156110c057600080fd5b6110cc85828601610e41565b95602094909401359450505050565b6000806000606084860312156110f057600080fd5b833567ffffffffffffffff81111561110757600080fd5b61111386828701610e41565b9350506020840135915061112960408501610f12565b90509250925092565b6000806040838503121561114557600080fd5b61114e83610f12565b915061115c60208401610f12565b90509250929050565b60008060006060848603121561117a57600080fd5b83359250602084013567ffffffffffffffff8082111561119957600080fd5b6111a587838801610e41565b935060408601359150808211156111bb57600080fd5b506111c886828701610e41565b9150509250925092565b600080604083850312156111e557600080fd5b82359150602083013567ffffffffffffffff81111561120357600080fd5b61106a85828601610e41565b60005b8381101561122a578181015183820152602001611212565b838111156107dc5750506000910152565b6000825161124d81846020870161120f565b9190910192915050565b6020808252818101527f4f776e61626c653a2063616c6c6572206973206e6f7420746865206f776e6572604082015260600190565b634e487b7160e01b600052603260045260246000fd5b634e487b7160e01b600052601160045260246000fd5b60006000198214156112cc576112cc6112a2565b5060010190565b815160009082906020808601845b838110156113065781516001600160a01b0316855293820193908201906001016112e1565b50929695505050505050565b815160009082906020808601845b838110156113065781518051611339818887850161120f565b601f01601f191695909501945090820190600101611320565b600082821015611364576113646112a2565b500390565b60006020828403121561137b57600080fd5b8151801515811461108f57600080fd5b600181815b808511156113c65781600019048211156113ac576113ac6112a2565b808516156113b957918102915b93841c9390800290611390565b509250929050565b6000826113dd5750600161146b565b816113ea5750600061146b565b8160018114611400576002811461140a57611426565b600191505061146b565b60ff84111561141b5761141b6112a2565b50506001821b61146b565b5060208310610133831016604e8410600b8410161715611449575081810a61146b565b611453838361138b565b8060001904821115611467576114676112a2565b0290505b92915050565b600061108f83836113ce565b6000816000190483118215151615611497576114976112a2565b500290565b6000826114b957634e487b7160e01b600052601260045260246000fd5b500490565b600082198211156114d1576114d16112a2565b500190565b805169ffffffffffffffffffff81168114610f2957600080fd5b600080600080600060a0868803121561150857600080fd5b611511866114d6565b9450602086015193506040860151925060608601519150611534608087016114d6565b90509295509295909350565b60006020828403121561155257600080fd5b815160ff8116811461108f57600080fd5b600181811c9082168061157757607f821691505b602082108114156109a557634e487b7160e01b600052602260045260246000fdfea2646970667358221220f0b46043e223f42edfaae517ed5d26a49f417e5a31f11e4a14d0ea09d6041c3564736f6c634300080a0033",
  "immutableReferences": {},
  "source": "// SPDX-License-Identifier: MIT\r\npragma solidity ^0.8.0;\r\npragma abicoder v2;\r\n\r\n//import 'https://github.com/Uniswap/v3-periphery/blob/main/contracts/interfaces/ISwapRouter.sol';\r\nimport '@uniswap/v3-periphery/contracts/libraries/TransferHelper.sol';\r\nimport '@uniswap/v3-periphery/contracts/interfaces/ISwapRouter.sol';\r\nimport '@openzeppelin/contracts/access/Ownable.sol';\r\nimport '@chainlink/contracts/src/v0.8/interfaces/AggregatorV3Interface.sol';\r\nimport '@openzeppelin/contracts/interfaces/IERC20.sol';\r\n\r\ncontract Bank is Ownable {\r\n    mapping(address => mapping(address => uint256)) public balances;\r\n    mapping (string=>address) public allowedTokens;\r\n    address[] allowedTokensList;\r\n    string[] allowedTokenNamesList;\r\n\r\n    mapping(address => address) public tokenPriceFeedMapping;\r\n\r\n    event AllowedTokensAdded(string[] indexed tokenNames, address[] indexed tokenAddresses, address indexed sender);\r\n    event NewPriceFeedContract(address indexed token, address indexed priceFeed);\r\n  \r\n    function addAllowedTokens(string[] memory tokenNames, address[] memory tokenAddresses) public onlyOwner {\r\n        require(tokenNames.length==tokenAddresses.length);\r\n        for (uint i=0; i<tokenNames.length; i++){\r\n            string memory tokenName=tokenNames[i];\r\n            address tokenAddress=tokenAddresses[i];\r\n            allowedTokens[tokenName]=tokenAddress;\r\n            allowedTokensList.push(tokenAddress);\r\n            allowedTokenNamesList.push(tokenName);\r\n        }\r\n        emit AllowedTokensAdded(tokenNames,tokenAddresses, msg.sender);\r\n    }\r\n\r\n    function setPriceFeedContract(address _token, address _priceFeed)\r\n        public\r\n        onlyOwner\r\n    {\r\n        tokenPriceFeedMapping[_token] = _priceFeed;\r\n        emit NewPriceFeedContract(_token,_priceFeed);\r\n    }\r\n\r\n    function getTokenValue(address _token)\r\n        public\r\n        view\r\n        returns (uint256, uint256)\r\n    {\r\n        //price feed address\r\n        address tokenPriceFeedAddress = tokenPriceFeedMapping[_token];\r\n        AggregatorV3Interface priceFeed = AggregatorV3Interface(\r\n            tokenPriceFeedAddress\r\n        );\r\n        (, int256 price, , , ) = priceFeed.latestRoundData();\r\n        uint256 decimals = uint256(priceFeed.decimals());\r\n        return (uint256(price), decimals);\r\n    }\r\n\r\n    function convertInput2Output(uint256 _amountIn, string memory _inputToken, string memory _outputToken) public view returns(uint){\r\n        (uint inputTokenPrice, uint inputTokenDecimals)=getTokenValue(allowedTokens[_inputToken]);\r\n        uint input2USD = (_amountIn*inputTokenPrice) / 10**inputTokenDecimals;\r\n\r\n        (uint outputTokenPrice,)=getTokenValue(allowedTokens[_outputToken]);\r\n        uint output2USD = outputTokenPrice;\r\n        uint input2Output = input2USD/output2USD;\r\n        return input2Output;\r\n    }\r\n\r\n\r\n    function deposit(uint256 value, string memory token) public {\r\n        require(allowedTokens[token] != address(0));\r\n        IERC20(allowedTokens[token]).transferFrom(msg.sender, address(this), value);\r\n        balances[msg.sender][allowedTokens[token]] += value;\r\n    }\r\n\r\n    function getTokenBalance(string memory token)\r\n        public\r\n        view\r\n        returns (uint256)\r\n    {\r\n        require(allowedTokens[token] != address(0));\r\n        return balances[msg.sender][allowedTokens[token]];\r\n    }\r\n\r\n    function getBankBalanceInUSD() public view returns (uint256) {\r\n        uint256 bankBalanceInUSD;\r\n        for (uint256 i = 0; i < allowedTokensList.length; i++) {\r\n            (uint price, uint decimals) = getTokenValue(allowedTokensList[i]);\r\n            if (allowedTokensList[i] != address(0)) {\r\n                bankBalanceInUSD += ((balances[msg.sender][\r\n                    allowedTokensList[i]\r\n                ] * price) / (10**decimals));\r\n            }\r\n        }\r\n        return bankBalanceInUSD;\r\n    }\r\n\r\n    function withdraw(string memory token, uint amount) public {\r\n        require(balances[msg.sender][allowedTokens[token]]>=amount, \"Insufficient Balance\");\r\n        balances[msg.sender][allowedTokens[token]]-=amount;\r\n        IERC20(allowedTokens[token]).transfer(msg.sender, amount);\r\n    }\r\n\r\n    function send(string memory token, uint amount, address beneficiary) public {\r\n        require(balances[msg.sender][allowedTokens[token]]>=amount, \"Insufficient Balance\");\r\n        balances[msg.sender][allowedTokens[token]]-=amount;\r\n        IERC20(allowedTokens[token]).transfer(beneficiary, amount);\r\n    }\r\n}\r\n",
  "sourcePath": "D:\\Dickens\\Programming\\Blockchain\\Projects\\Personal\\defi\\contracts\\Bank.sol",
  "compiler": {
    "name": "solc",
    "version": "0.8.10+commit.fc410830.Emscripten.clang"
  },
  "schemaVersion": "3.4.1",
  "updatedAt": "2021-12-12T09:20:19.814Z",
  "devdoc": {
    "kind": "dev",
    "methods": {
      "owner()": {
        "details": "Returns the address of the current owner."
      },
      "renounceOwnership()": {
        "details": "Leaves the contract without owner. It will not be possible to call `onlyOwner` functions anymore. Can only be called by the current owner. NOTE: Renouncing ownership will leave the contract without an owner, thereby removing any functionality that is only available to the owner."
      },
      "transferOwnership(address)": {
        "details": "Transfers ownership of the contract to a new account (`newOwner`). Can only be called by the current owner."
      }
    },
    "version": 1
  },
  "userdoc": {
    "kind": "user",
    "methods": {},
    "version": 1
  }
}