{
  "contractName": "Bank",
  "abi": [
    {
      "anonymous": false,
      "inputs": [
        {
          "indexed": true,
          "internalType": "string[]",
          "name": "tokenNames",
          "type": "string[]"
        },
        {
          "indexed": true,
          "internalType": "address[]",
          "name": "tokenAddresses",
          "type": "address[]"
        },
        {
          "indexed": true,
          "internalType": "address",
          "name": "sender",
          "type": "address"
        }
      ],
      "name": "AllowedTokensAdded",
      "type": "event"
    },
    {
      "anonymous": false,
      "inputs": [
        {
          "indexed": true,
          "internalType": "address",
          "name": "token",
          "type": "address"
        },
        {
          "indexed": true,
          "internalType": "address",
          "name": "priceFeed",
          "type": "address"
        }
      ],
      "name": "NewPriceFeedContract",
      "type": "event"
    },
    {
      "anonymous": false,
      "inputs": [
        {
          "indexed": true,
          "internalType": "address",
          "name": "previousOwner",
          "type": "address"
        },
        {
          "indexed": true,
          "internalType": "address",
          "name": "newOwner",
          "type": "address"
        }
      ],
      "name": "OwnershipTransferred",
      "type": "event"
    },
    {
      "inputs": [
        {
          "internalType": "string",
          "name": "",
          "type": "string"
        }
      ],
      "name": "allowedTokens",
      "outputs": [
        {
          "internalType": "address",
          "name": "",
          "type": "address"
        }
      ],
      "stateMutability": "view",
      "type": "function"
    },
    {
      "inputs": [
        {
          "internalType": "address",
          "name": "",
          "type": "address"
        },
        {
          "internalType": "address",
          "name": "",
          "type": "address"
        }
      ],
      "name": "balances",
      "outputs": [
        {
          "internalType": "uint256",
          "name": "",
          "type": "uint256"
        }
      ],
      "stateMutability": "view",
      "type": "function"
    },
    {
      "inputs": [],
      "name": "owner",
      "outputs": [
        {
          "internalType": "address",
          "name": "",
          "type": "address"
        }
      ],
      "stateMutability": "view",
      "type": "function"
    },
    {
      "inputs": [],
      "name": "renounceOwnership",
      "outputs": [],
      "stateMutability": "nonpayable",
      "type": "function"
    },
    {
      "inputs": [
        {
          "internalType": "address",
          "name": "",
          "type": "address"
        }
      ],
      "name": "tokenPriceFeedMapping",
      "outputs": [
        {
          "internalType": "address",
          "name": "",
          "type": "address"
        }
      ],
      "stateMutability": "view",
      "type": "function"
    },
    {
      "inputs": [
        {
          "internalType": "address",
          "name": "newOwner",
          "type": "address"
        }
      ],
      "name": "transferOwnership",
      "outputs": [],
      "stateMutability": "nonpayable",
      "type": "function"
    },
    {
      "inputs": [
        {
          "internalType": "string[]",
          "name": "tokenNames",
          "type": "string[]"
        },
        {
          "internalType": "address[]",
          "name": "tokenAddresses",
          "type": "address[]"
        }
      ],
      "name": "addAllowedTokens",
      "outputs": [],
      "stateMutability": "nonpayable",
      "type": "function"
    },
    {
      "inputs": [
        {
          "internalType": "address",
          "name": "_token",
          "type": "address"
        },
        {
          "internalType": "address",
          "name": "_priceFeed",
          "type": "address"
        }
      ],
      "name": "setPriceFeedContract",
      "outputs": [],
      "stateMutability": "nonpayable",
      "type": "function"
    },
    {
      "inputs": [
        {
          "internalType": "address",
          "name": "_token",
          "type": "address"
        }
      ],
      "name": "getTokenValue",
      "outputs": [
        {
          "internalType": "uint256",
          "name": "",
          "type": "uint256"
        },
        {
          "internalType": "uint256",
          "name": "",
          "type": "uint256"
        }
      ],
      "stateMutability": "view",
      "type": "function"
    },
    {
      "inputs": [
        {
          "internalType": "uint256",
          "name": "_amountIn",
          "type": "uint256"
        },
        {
          "internalType": "string",
          "name": "_inputToken",
          "type": "string"
        },
        {
          "internalType": "string",
          "name": "_outputToken",
          "type": "string"
        }
      ],
      "name": "convertInput2Output",
      "outputs": [
        {
          "internalType": "uint256",
          "name": "",
          "type": "uint256"
        }
      ],
      "stateMutability": "view",
      "type": "function"
    },
    {
      "inputs": [
        {
          "internalType": "uint256",
          "name": "value",
          "type": "uint256"
        },
        {
          "internalType": "string",
          "name": "token",
          "type": "string"
        }
      ],
      "name": "deposit",
      "outputs": [],
      "stateMutability": "nonpayable",
      "type": "function"
    },
    {
      "inputs": [
        {
          "internalType": "string",
          "name": "token",
          "type": "string"
        }
      ],
      "name": "getTokenBalance",
      "outputs": [
        {
          "internalType": "uint256",
          "name": "",
          "type": "uint256"
        }
      ],
      "stateMutability": "view",
      "type": "function"
    },
    {
      "inputs": [],
      "name": "getBankBalanceInUSD",
      "outputs": [
        {
          "internalType": "uint256",
          "name": "",
          "type": "uint256"
        }
      ],
      "stateMutability": "view",
      "type": "function"
    },
    {
      "inputs": [
        {
          "internalType": "string",
          "name": "token",
          "type": "string"
        },
        {
          "internalType": "uint256",
          "name": "amount",
          "type": "uint256"
        }
      ],
      "name": "withdraw",
      "outputs": [],
      "stateMutability": "nonpayable",
      "type": "function"
    },
    {
      "inputs": [
        {
          "internalType": "string",
          "name": "token",
          "type": "string"
        },
        {
          "internalType": "uint256",
          "name": "amount",
          "type": "uint256"
        },
        {
          "internalType": "address",
          "name": "beneficiary",
          "type": "address"
        }
      ],
      "name": "send",
      "outputs": [],
      "stateMutability": "nonpayable",
      "type": "function"
    }
  ],
  "bytecode": "0x60806040523480156200001157600080fd5b5062000032620000266200003860201b60201c565b6200004060201b60201c565b62000104565b600033905090565b60008060009054906101000a900473ffffffffffffffffffffffffffffffffffffffff169050816000806101000a81548173ffffffffffffffffffffffffffffffffffffffff021916908373ffffffffffffffffffffffffffffffffffffffff1602179055508173ffffffffffffffffffffffffffffffffffffffff168173ffffffffffffffffffffffffffffffffffffffff167f8be0079c531659141344cd1fd0a4f28419497f9722a3daafe3b4186f6b6457e060405160405180910390a35050565b61280680620001146000396000f3fe608060405234801561001057600080fd5b50600436106100f55760003560e01c80638da5cb5b11610097578063f1215d2511610066578063f1215d2514610270578063f1c5d6c21461028c578063f2fde38b146102bd578063fb9576da146102d9576100f5565b80638da5cb5b146101d4578063a0efb218146101f2578063a113a5a914610210578063c23f001f14610240576100f5565b806330b39a62116100d357806330b39a621461017657806349e102e214610192578063715018a6146101ae578063877dd39d146101b8576100f5565b8063025abd58146100fa5780630d40e2b31461012a57806327927b3e14610146575b600080fd5b610114600480360381019061010f919061185e565b610309565b60405161012191906118c0565b60405180910390f35b610144600480360381019061013f9190611ae2565b610444565b005b610160600480360381019061015b9190611b5a565b61069d565b60405161016d9190611b96565b60405180910390f35b610190600480360381019061018b9190611bdd565b6106d0565b005b6101ac60048036038101906101a79190611c39565b61095f565b005b6101b6610bef565b005b6101d260048036038101906101cd9190611ca8565b610c77565b005b6101dc610dcf565b6040516101e99190611b96565b60405180910390f35b6101fa610df8565b60405161020791906118c0565b60405180910390f35b61022a60048036038101906102259190611ce8565b610fd3565b60405161023791906118c0565b60405180910390f35b61025a60048036038101906102559190611ca8565b6110bb565b60405161026791906118c0565b60405180910390f35b61028a60048036038101906102859190611d73565b6110e0565b005b6102a660048036038101906102a19190611b5a565b6112ec565b6040516102b4929190611dcf565b60405180910390f35b6102d760048036038101906102d29190611b5a565b611454565b005b6102f360048036038101906102ee919061185e565b61154c565b6040516103009190611b96565b60405180910390f35b60008073ffffffffffffffffffffffffffffffffffffffff166002836040516103329190611e72565b908152602001604051809103902060009054906101000a900473ffffffffffffffffffffffffffffffffffffffff1673ffffffffffffffffffffffffffffffffffffffff16141561038257600080fd5b600160003373ffffffffffffffffffffffffffffffffffffffff1673ffffffffffffffffffffffffffffffffffffffff16815260200190815260200160002060006002846040516103d39190611e72565b908152602001604051809103902060009054906101000a900473ffffffffffffffffffffffffffffffffffffffff1673ffffffffffffffffffffffffffffffffffffffff1673ffffffffffffffffffffffffffffffffffffffff168152602001908152602001600020549050919050565b61044c611595565b73ffffffffffffffffffffffffffffffffffffffff1661046a610dcf565b73ffffffffffffffffffffffffffffffffffffffff16146104c0576040517f08c379a00000000000000000000000000000000000000000000000000000000081526004016104b790611ee6565b60405180910390fd5b80518251146104ce57600080fd5b60005b82518110156106295760008382815181106104ef576104ee611f06565b5b60200260200101519050600083838151811061050e5761050d611f06565b5b60200260200101519050806002836040516105299190611e72565b908152602001604051809103902060006101000a81548173ffffffffffffffffffffffffffffffffffffffff021916908373ffffffffffffffffffffffffffffffffffffffff1602179055506003819080600181540180825580915050600190039060005260206000200160009091909190916101000a81548173ffffffffffffffffffffffffffffffffffffffff021916908373ffffffffffffffffffffffffffffffffffffffff160217905550600482908060018154018082558091505060019003906000526020600020016000909190919091509080519060200190610613929190611661565b505050808061062190611f64565b9150506104d1565b503373ffffffffffffffffffffffffffffffffffffffff168160405161064f9190612065565b6040518091039020836040516106659190612165565b60405180910390207f3a666b286cd7f0b1938fdc87e1147d56462ffe518db5b0c990310fa07c3288e660405160405180910390a45050565b60056020528060005260406000206000915054906101000a900473ffffffffffffffffffffffffffffffffffffffff1681565b80600160003373ffffffffffffffffffffffffffffffffffffffff1673ffffffffffffffffffffffffffffffffffffffff16815260200190815260200160002060006002856040516107229190611e72565b908152602001604051809103902060009054906101000a900473ffffffffffffffffffffffffffffffffffffffff1673ffffffffffffffffffffffffffffffffffffffff1673ffffffffffffffffffffffffffffffffffffffff1681526020019081526020016000205410156107cd576040517f08c379a00000000000000000000000000000000000000000000000000000000081526004016107c4906121c8565b60405180910390fd5b80600160003373ffffffffffffffffffffffffffffffffffffffff1673ffffffffffffffffffffffffffffffffffffffff168152602001908152602001600020600060028560405161081f9190611e72565b908152602001604051809103902060009054906101000a900473ffffffffffffffffffffffffffffffffffffffff1673ffffffffffffffffffffffffffffffffffffffff1673ffffffffffffffffffffffffffffffffffffffff168152602001908152602001600020600082825461089791906121e8565b925050819055506002826040516108ae9190611e72565b908152602001604051809103902060009054906101000a900473ffffffffffffffffffffffffffffffffffffffff1673ffffffffffffffffffffffffffffffffffffffff1663a9059cbb33836040518363ffffffff1660e01b815260040161091792919061221c565b6020604051808303816000875af1158015610936573d6000803e3d6000fd5b505050506040513d601f19601f8201168201806040525081019061095a919061227d565b505050565b81600160003373ffffffffffffffffffffffffffffffffffffffff1673ffffffffffffffffffffffffffffffffffffffff16815260200190815260200160002060006002866040516109b19190611e72565b908152602001604051809103902060009054906101000a900473ffffffffffffffffffffffffffffffffffffffff1673ffffffffffffffffffffffffffffffffffffffff1673ffffffffffffffffffffffffffffffffffffffff168152602001908152602001600020541015610a5c576040517f08c379a0000000000000000000000000000000000000000000000000000000008152600401610a53906121c8565b60405180910390fd5b81600160003373ffffffffffffffffffffffffffffffffffffffff1673ffffffffffffffffffffffffffffffffffffffff1681526020019081526020016000206000600286604051610aae9190611e72565b908152602001604051809103902060009054906101000a900473ffffffffffffffffffffffffffffffffffffffff1673ffffffffffffffffffffffffffffffffffffffff1673ffffffffffffffffffffffffffffffffffffffff1681526020019081526020016000206000828254610b2691906121e8565b92505081905550600283604051610b3d9190611e72565b908152602001604051809103902060009054906101000a900473ffffffffffffffffffffffffffffffffffffffff1673ffffffffffffffffffffffffffffffffffffffff1663a9059cbb82846040518363ffffffff1660e01b8152600401610ba692919061221c565b6020604051808303816000875af1158015610bc5573d6000803e3d6000fd5b505050506040513d601f19601f82011682018060405250810190610be9919061227d565b50505050565b610bf7611595565b73ffffffffffffffffffffffffffffffffffffffff16610c15610dcf565b73ffffffffffffffffffffffffffffffffffffffff1614610c6b576040517f08c379a0000000000000000000000000000000000000000000000000000000008152600401610c6290611ee6565b60405180910390fd5b610c75600061159d565b565b610c7f611595565b73ffffffffffffffffffffffffffffffffffffffff16610c9d610dcf565b73ffffffffffffffffffffffffffffffffffffffff1614610cf3576040517f08c379a0000000000000000000000000000000000000000000000000000000008152600401610cea90611ee6565b60405180910390fd5b80600560008473ffffffffffffffffffffffffffffffffffffffff1673ffffffffffffffffffffffffffffffffffffffff16815260200190815260200160002060006101000a81548173ffffffffffffffffffffffffffffffffffffffff021916908373ffffffffffffffffffffffffffffffffffffffff1602179055508073ffffffffffffffffffffffffffffffffffffffff168273ffffffffffffffffffffffffffffffffffffffff167fb16d409940dc728462f5982a32c1fa960a0f3b7aec11139cf7787b7f7607cb6160405160405180910390a35050565b60008060009054906101000a900473ffffffffffffffffffffffffffffffffffffffff16905090565b60008060005b600380549050811015610fcb57600080610e5560038481548110610e2557610e24611f06565b5b9060005260206000200160009054906101000a900473ffffffffffffffffffffffffffffffffffffffff166112ec565b91509150600073ffffffffffffffffffffffffffffffffffffffff1660038481548110610e8557610e84611f06565b5b9060005260206000200160009054906101000a900473ffffffffffffffffffffffffffffffffffffffff1673ffffffffffffffffffffffffffffffffffffffff1614610fb65780600a610ed891906123dd565b82600160003373ffffffffffffffffffffffffffffffffffffffff1673ffffffffffffffffffffffffffffffffffffffff168152602001908152602001600020600060038781548110610f2e57610f2d611f06565b5b9060005260206000200160009054906101000a900473ffffffffffffffffffffffffffffffffffffffff1673ffffffffffffffffffffffffffffffffffffffff1673ffffffffffffffffffffffffffffffffffffffff16815260200190815260200160002054610f9e9190612428565b610fa891906124b1565b84610fb391906124e2565b93505b50508080610fc390611f64565b915050610dfe565b508091505090565b600080600061101f600286604051610feb9190611e72565b908152602001604051809103902060009054906101000a900473ffffffffffffffffffffffffffffffffffffffff166112ec565b91509150600081600a61103291906123dd565b838861103e9190612428565b61104891906124b1565b9050600061109360028760405161105f9190611e72565b908152602001604051809103902060009054906101000a900473ffffffffffffffffffffffffffffffffffffffff166112ec565b5090506000819050600081846110a991906124b1565b90508096505050505050509392505050565b6001602052816000526040600020602052806000526040600020600091509150505481565b600073ffffffffffffffffffffffffffffffffffffffff166002826040516111089190611e72565b908152602001604051809103902060009054906101000a900473ffffffffffffffffffffffffffffffffffffffff1673ffffffffffffffffffffffffffffffffffffffff16141561115857600080fd5b6002816040516111689190611e72565b908152602001604051809103902060009054906101000a900473ffffffffffffffffffffffffffffffffffffffff1673ffffffffffffffffffffffffffffffffffffffff166323b872dd3330856040518463ffffffff1660e01b81526004016111d393929190612538565b6020604051808303816000875af11580156111f2573d6000803e3d6000fd5b505050506040513d601f19601f82011682018060405250810190611216919061227d565b5081600160003373ffffffffffffffffffffffffffffffffffffffff1673ffffffffffffffffffffffffffffffffffffffff16815260200190815260200160002060006002846040516112699190611e72565b908152602001604051809103902060009054906101000a900473ffffffffffffffffffffffffffffffffffffffff1673ffffffffffffffffffffffffffffffffffffffff1673ffffffffffffffffffffffffffffffffffffffff16815260200190815260200160002060008282546112e191906124e2565b925050819055505050565b6000806000600560008573ffffffffffffffffffffffffffffffffffffffff1673ffffffffffffffffffffffffffffffffffffffff16815260200190815260200160002060009054906101000a900473ffffffffffffffffffffffffffffffffffffffff169050600081905060008173ffffffffffffffffffffffffffffffffffffffff1663feaf968c6040518163ffffffff1660e01b815260040160a060405180830381865afa1580156113a5573d6000803e3d6000fd5b505050506040513d601f19601f820116820180604052508101906113c991906125fc565b50505091505060008273ffffffffffffffffffffffffffffffffffffffff1663313ce5676040518163ffffffff1660e01b8152600401602060405180830381865afa15801561141c573d6000803e3d6000fd5b505050506040513d601f19601f8201168201806040525081019061144091906126b0565b60ff16905081819550955050505050915091565b61145c611595565b73ffffffffffffffffffffffffffffffffffffffff1661147a610dcf565b73ffffffffffffffffffffffffffffffffffffffff16146114d0576040517f08c379a00000000000000000000000000000000000000000000000000000000081526004016114c790611ee6565b60405180910390fd5b600073ffffffffffffffffffffffffffffffffffffffff168173ffffffffffffffffffffffffffffffffffffffff161415611540576040517f08c379a00000000000000000000000000000000000000000000000000000000081526004016115379061274f565b60405180910390fd5b6115498161159d565b50565b6002818051602081018201805184825260208301602085012081835280955050505050506000915054906101000a900473ffffffffffffffffffffffffffffffffffffffff1681565b600033905090565b60008060009054906101000a900473ffffffffffffffffffffffffffffffffffffffff169050816000806101000a81548173ffffffffffffffffffffffffffffffffffffffff021916908373ffffffffffffffffffffffffffffffffffffffff1602179055508173ffffffffffffffffffffffffffffffffffffffff168173ffffffffffffffffffffffffffffffffffffffff167f8be0079c531659141344cd1fd0a4f28419497f9722a3daafe3b4186f6b6457e060405160405180910390a35050565b82805461166d9061279e565b90600052602060002090601f01602090048101928261168f57600085556116d6565b82601f106116a857805160ff19168380011785556116d6565b828001600101855582156116d6579182015b828111156116d55782518255916020019190600101906116ba565b5b5090506116e391906116e7565b5090565b5b808211156117005760008160009055506001016116e8565b5090565b6000604051905090565b600080fd5b600080fd5b600080fd5b600080fd5b6000601f19601f8301169050919050565b7f4e487b7100000000000000000000000000000000000000000000000000000000600052604160045260246000fd5b61176b82611722565b810181811067ffffffffffffffff8211171561178a57611789611733565b5b80604052505050565b600061179d611704565b90506117a98282611762565b919050565b600067ffffffffffffffff8211156117c9576117c8611733565b5b6117d282611722565b9050602081019050919050565b82818337600083830152505050565b60006118016117fc846117ae565b611793565b90508281526020810184848401111561181d5761181c61171d565b5b6118288482856117df565b509392505050565b600082601f83011261184557611844611718565b5b81356118558482602086016117ee565b91505092915050565b6000602082840312156118745761187361170e565b5b600082013567ffffffffffffffff81111561189257611891611713565b5b61189e84828501611830565b91505092915050565b6000819050919050565b6118ba816118a7565b82525050565b60006020820190506118d560008301846118b1565b92915050565b600067ffffffffffffffff8211156118f6576118f5611733565b5b602082029050602081019050919050565b600080fd5b600061191f61191a846118db565b611793565b9050808382526020820190506020840283018581111561194257611941611907565b5b835b8181101561198957803567ffffffffffffffff81111561196757611966611718565b5b8086016119748982611830565b85526020850194505050602081019050611944565b5050509392505050565b600082601f8301126119a8576119a7611718565b5b81356119b884826020860161190c565b91505092915050565b600067ffffffffffffffff8211156119dc576119db611733565b5b602082029050602081019050919050565b600073ffffffffffffffffffffffffffffffffffffffff82169050919050565b6000611a18826119ed565b9050919050565b611a2881611a0d565b8114611a3357600080fd5b50565b600081359050611a4581611a1f565b92915050565b6000611a5e611a59846119c1565b611793565b90508083825260208201905060208402830185811115611a8157611a80611907565b5b835b81811015611aaa5780611a968882611a36565b845260208401935050602081019050611a83565b5050509392505050565b600082601f830112611ac957611ac8611718565b5b8135611ad9848260208601611a4b565b91505092915050565b60008060408385031215611af957611af861170e565b5b600083013567ffffffffffffffff811115611b1757611b16611713565b5b611b2385828601611993565b925050602083013567ffffffffffffffff811115611b4457611b43611713565b5b611b5085828601611ab4565b9150509250929050565b600060208284031215611b7057611b6f61170e565b5b6000611b7e84828501611a36565b91505092915050565b611b9081611a0d565b82525050565b6000602082019050611bab6000830184611b87565b92915050565b611bba816118a7565b8114611bc557600080fd5b50565b600081359050611bd781611bb1565b92915050565b60008060408385031215611bf457611bf361170e565b5b600083013567ffffffffffffffff811115611c1257611c11611713565b5b611c1e85828601611830565b9250506020611c2f85828601611bc8565b9150509250929050565b600080600060608486031215611c5257611c5161170e565b5b600084013567ffffffffffffffff811115611c7057611c6f611713565b5b611c7c86828701611830565b9350506020611c8d86828701611bc8565b9250506040611c9e86828701611a36565b9150509250925092565b60008060408385031215611cbf57611cbe61170e565b5b6000611ccd85828601611a36565b9250506020611cde85828601611a36565b9150509250929050565b600080600060608486031215611d0157611d0061170e565b5b6000611d0f86828701611bc8565b935050602084013567ffffffffffffffff811115611d3057611d2f611713565b5b611d3c86828701611830565b925050604084013567ffffffffffffffff811115611d5d57611d5c611713565b5b611d6986828701611830565b9150509250925092565b60008060408385031215611d8a57611d8961170e565b5b6000611d9885828601611bc8565b925050602083013567ffffffffffffffff811115611db957611db8611713565b5b611dc585828601611830565b9150509250929050565b6000604082019050611de460008301856118b1565b611df160208301846118b1565b9392505050565b600081519050919050565b600081905092915050565b60005b83811015611e2c578082015181840152602081019050611e11565b83811115611e3b576000848401525b50505050565b6000611e4c82611df8565b611e568185611e03565b9350611e66818560208601611e0e565b80840191505092915050565b6000611e7e8284611e41565b915081905092915050565b600082825260208201905092915050565b7f4f776e61626c653a2063616c6c6572206973206e6f7420746865206f776e6572600082015250565b6000611ed0602083611e89565b9150611edb82611e9a565b602082019050919050565b60006020820190508181036000830152611eff81611ec3565b9050919050565b7f4e487b7100000000000000000000000000000000000000000000000000000000600052603260045260246000fd5b7f4e487b7100000000000000000000000000000000000000000000000000000000600052601160045260246000fd5b6000611f6f826118a7565b91507fffffffffffffffffffffffffffffffffffffffffffffffffffffffffffffffff821415611fa257611fa1611f35565b5b600182019050919050565b600081519050919050565b600081905092915050565b6000819050602082019050919050565b611fdc81611a0d565b82525050565b6000611fee8383611fd3565b60208301905092915050565b6000602082019050919050565b600061201282611fad565b61201c8185611fb8565b935061202783611fc3565b8060005b8381101561205857815161203f8882611fe2565b975061204a83611ffa565b92505060018101905061202b565b5085935050505092915050565b60006120718284612007565b915081905092915050565b600081519050919050565b600081905092915050565b6000819050602082019050919050565b600081905092915050565b60006120b882611df8565b6120c281856120a2565b93506120d2818560208601611e0e565b6120db81611722565b840191505092915050565b60006120f283836120ad565b905092915050565b6000602082019050919050565b60006121128261207c565b61211c8185612087565b935061212783612092565b8060005b8381101561215857815161213f88826120e6565b975061214a836120fa565b92505060018101905061212b565b5085935050505092915050565b60006121718284612107565b915081905092915050565b7f496e73756666696369656e742042616c616e6365000000000000000000000000600082015250565b60006121b2601483611e89565b91506121bd8261217c565b602082019050919050565b600060208201905081810360008301526121e1816121a5565b9050919050565b60006121f3826118a7565b91506121fe836118a7565b92508282101561221157612210611f35565b5b828203905092915050565b60006040820190506122316000830185611b87565b61223e60208301846118b1565b9392505050565b60008115159050919050565b61225a81612245565b811461226557600080fd5b50565b60008151905061227781612251565b92915050565b6000602082840312156122935761229261170e565b5b60006122a184828501612268565b91505092915050565b60008160011c9050919050565b6000808291508390505b6001851115612301578086048111156122dd576122dc611f35565b5b60018516156122ec5780820291505b80810290506122fa856122aa565b94506122c1565b94509492505050565b60008261231a57600190506123d6565b8161232857600090506123d6565b816001811461233e576002811461234857612377565b60019150506123d6565b60ff84111561235a57612359611f35565b5b8360020a91508482111561237157612370611f35565b5b506123d6565b5060208310610133831016604e8410600b84101617156123ac5782820a9050838111156123a7576123a6611f35565b5b6123d6565b6123b984848460016122b7565b925090508184048111156123d0576123cf611f35565b5b81810290505b9392505050565b60006123e8826118a7565b91506123f3836118a7565b92506124207fffffffffffffffffffffffffffffffffffffffffffffffffffffffffffffffff848461230a565b905092915050565b6000612433826118a7565b915061243e836118a7565b9250817fffffffffffffffffffffffffffffffffffffffffffffffffffffffffffffffff048311821515161561247757612476611f35565b5b828202905092915050565b7f4e487b7100000000000000000000000000000000000000000000000000000000600052601260045260246000fd5b60006124bc826118a7565b91506124c7836118a7565b9250826124d7576124d6612482565b5b828204905092915050565b60006124ed826118a7565b91506124f8836118a7565b9250827fffffffffffffffffffffffffffffffffffffffffffffffffffffffffffffffff0382111561252d5761252c611f35565b5b828201905092915050565b600060608201905061254d6000830186611b87565b61255a6020830185611b87565b61256760408301846118b1565b949350505050565b600069ffffffffffffffffffff82169050919050565b61258e8161256f565b811461259957600080fd5b50565b6000815190506125ab81612585565b92915050565b6000819050919050565b6125c4816125b1565b81146125cf57600080fd5b50565b6000815190506125e1816125bb565b92915050565b6000815190506125f681611bb1565b92915050565b600080600080600060a086880312156126185761261761170e565b5b60006126268882890161259c565b9550506020612637888289016125d2565b9450506040612648888289016125e7565b9350506060612659888289016125e7565b925050608061266a8882890161259c565b9150509295509295909350565b600060ff82169050919050565b61268d81612677565b811461269857600080fd5b50565b6000815190506126aa81612684565b92915050565b6000602082840312156126c6576126c561170e565b5b60006126d48482850161269b565b91505092915050565b7f4f776e61626c653a206e6577206f776e657220697320746865207a65726f206160008201527f6464726573730000000000000000000000000000000000000000000000000000602082015250565b6000612739602683611e89565b9150612744826126dd565b604082019050919050565b600060208201905081810360008301526127688161272c565b9050919050565b7f4e487b7100000000000000000000000000000000000000000000000000000000600052602260045260246000fd5b600060028204905060018216806127b657607f821691505b602082108114156127ca576127c961276f565b5b5091905056fea26469706673582212207bb0de799227fb97821d3fe39699f418e917ecd30f99637fc0d4650fb244fb0864736f6c634300080a0033",
  "immutableReferences": {},
  "source": "// SPDX-License-Identifier: MIT\npragma solidity ^0.8.0;\npragma abicoder v2;\n\n//import 'https://github.com/Uniswap/v3-periphery/blob/main/contracts/interfaces/ISwapRouter.sol';\nimport '@uniswap/v3-periphery/contracts/libraries/TransferHelper.sol';\nimport '@uniswap/v3-periphery/contracts/interfaces/ISwapRouter.sol';\nimport '@openzeppelin/contracts/access/Ownable.sol';\nimport '@chainlink/contracts/src/v0.8/interfaces/AggregatorV3Interface.sol';\nimport '@openzeppelin/contracts/interfaces/IERC20.sol';\n\ncontract Bank is Ownable {\n    mapping(address => mapping(address => uint256)) public balances;\n    mapping (string=>address) public allowedTokens;\n    address[] allowedTokensList;\n    string[] allowedTokenNamesList;\n\n    mapping(address => address) public tokenPriceFeedMapping;\n\n    event AllowedTokensAdded(string[] indexed tokenNames, address[] indexed tokenAddresses, address indexed sender);\n    event NewPriceFeedContract(address indexed token, address indexed priceFeed);\n  \n    function addAllowedTokens(string[] memory tokenNames, address[] memory tokenAddresses) public onlyOwner {\n        require(tokenNames.length==tokenAddresses.length);\n        for (uint i=0; i<tokenNames.length; i++){\n            string memory tokenName=tokenNames[i];\n            address tokenAddress=tokenAddresses[i];\n            allowedTokens[tokenName]=tokenAddress;\n            allowedTokensList.push(tokenAddress);\n            allowedTokenNamesList.push(tokenName);\n        }\n        emit AllowedTokensAdded(tokenNames,tokenAddresses, msg.sender);\n    }\n\n    function setPriceFeedContract(address _token, address _priceFeed)\n        public\n        onlyOwner\n    {\n        tokenPriceFeedMapping[_token] = _priceFeed;\n        emit NewPriceFeedContract(_token,_priceFeed);\n    }\n\n    function getTokenValue(address _token)\n        public\n        view\n        returns (uint256, uint256)\n    {\n        //price feed address\n        address tokenPriceFeedAddress = tokenPriceFeedMapping[_token];\n        AggregatorV3Interface priceFeed = AggregatorV3Interface(\n            tokenPriceFeedAddress\n        );\n        (, int256 price, , , ) = priceFeed.latestRoundData();\n        uint256 decimals = uint256(priceFeed.decimals());\n        return (uint256(price), decimals);\n    }\n\n    function convertInput2Output(uint256 _amountIn, string memory _inputToken, string memory _outputToken) public view returns(uint){\n        (uint inputTokenPrice, uint inputTokenDecimals)=getTokenValue(allowedTokens[_inputToken]);\n        uint input2USD = (_amountIn*inputTokenPrice) / 10**inputTokenDecimals;\n\n        (uint outputTokenPrice,)=getTokenValue(allowedTokens[_outputToken]);\n        uint output2USD = outputTokenPrice;\n        uint input2Output = input2USD/output2USD;\n        return input2Output;\n    }\n\n\n    function deposit(uint256 value, string memory token) public {\n        require(allowedTokens[token] != address(0));\n        IERC20(allowedTokens[token]).transferFrom(msg.sender, address(this), value);\n        balances[msg.sender][allowedTokens[token]] += value;\n    }\n\n    function getTokenBalance(string memory token)\n        public\n        view\n        returns (uint256)\n    {\n        require(allowedTokens[token] != address(0));\n        return balances[msg.sender][allowedTokens[token]];\n    }\n\n    function getBankBalanceInUSD() public view returns (uint256) {\n        uint256 bankBalanceInUSD;\n        for (uint256 i = 0; i < allowedTokensList.length; i++) {\n            (uint price, uint decimals) = getTokenValue(allowedTokensList[i]);\n            if (allowedTokensList[i] != address(0)) {\n                bankBalanceInUSD += ((balances[msg.sender][\n                    allowedTokensList[i]\n                ] * price) / (10**decimals));\n            }\n        }\n        return bankBalanceInUSD;\n    }\n\n    function withdraw(string memory token, uint amount) public {\n        require(balances[msg.sender][allowedTokens[token]]>=amount, \"Insufficient Balance\");\n        balances[msg.sender][allowedTokens[token]]-=amount;\n        IERC20(allowedTokens[token]).transfer(msg.sender, amount);\n    }\n\n    function send(string memory token, uint amount, address beneficiary) public {\n        require(balances[msg.sender][allowedTokens[token]]>=amount, \"Insufficient Balance\");\n        balances[msg.sender][allowedTokens[token]]-=amount;\n        IERC20(allowedTokens[token]).transfer(beneficiary, amount);\n    }\n}\n",
  "sourcePath": "/Users/nerdjango/Documents/GitHub/Tibraun-Defi/contracts/Bank.sol",
  "compiler": {
    "name": "solc",
    "version": "0.8.10+commit.fc410830.Emscripten.clang"
  },
  "schemaVersion": "3.4.3",
  "updatedAt": "2021-12-11T22:18:29.513Z",
  "devdoc": {
    "kind": "dev",
    "methods": {
      "owner()": {
        "details": "Returns the address of the current owner."
      },
      "renounceOwnership()": {
        "details": "Leaves the contract without owner. It will not be possible to call `onlyOwner` functions anymore. Can only be called by the current owner. NOTE: Renouncing ownership will leave the contract without an owner, thereby removing any functionality that is only available to the owner."
      },
      "transferOwnership(address)": {
        "details": "Transfers ownership of the contract to a new account (`newOwner`). Can only be called by the current owner."
      }
    },
    "version": 1
  },
  "userdoc": {
    "kind": "user",
    "methods": {},
    "version": 1
  }
}