{
  "contractName": "TokenSwap",
  "abi": [
    {
      "inputs": [
        {
          "internalType": "contract ISwapRouter",
          "name": "_swapRouter",
          "type": "address"
        },
        {
          "internalType": "string[]",
          "name": "tokenNames",
          "type": "string[]"
        },
        {
          "internalType": "address[]",
          "name": "tokenAddresses",
          "type": "address[]"
        }
      ],
      "stateMutability": "nonpayable",
      "type": "constructor"
    },
    {
      "anonymous": false,
      "inputs": [
        {
          "indexed": true,
          "internalType": "string[]",
          "name": "tokenNames",
          "type": "string[]"
        },
        {
          "indexed": true,
          "internalType": "address[]",
          "name": "tokenAddresses",
          "type": "address[]"
        },
        {
          "indexed": true,
          "internalType": "address",
          "name": "sender",
          "type": "address"
        }
      ],
      "name": "AllowedTokensAdded",
      "type": "event"
    },
    {
      "anonymous": false,
      "inputs": [
        {
          "indexed": true,
          "internalType": "address",
          "name": "token",
          "type": "address"
        },
        {
          "indexed": true,
          "internalType": "address",
          "name": "priceFeed",
          "type": "address"
        }
      ],
      "name": "NewPriceFeedContract",
      "type": "event"
    },
    {
      "anonymous": false,
      "inputs": [
        {
          "indexed": true,
          "internalType": "address",
          "name": "previousOwner",
          "type": "address"
        },
        {
          "indexed": true,
          "internalType": "address",
          "name": "newOwner",
          "type": "address"
        }
      ],
      "name": "OwnershipTransferred",
      "type": "event"
    },
    {
      "inputs": [
        {
          "internalType": "string[]",
          "name": "tokenNames",
          "type": "string[]"
        },
        {
          "internalType": "address[]",
          "name": "tokenAddresses",
          "type": "address[]"
        }
      ],
      "name": "addAllowedTokens",
      "outputs": [],
      "stateMutability": "nonpayable",
      "type": "function"
    },
    {
      "inputs": [
        {
          "internalType": "string",
          "name": "",
          "type": "string"
        }
      ],
      "name": "allowedTokens",
      "outputs": [
        {
          "internalType": "address",
          "name": "",
          "type": "address"
        }
      ],
      "stateMutability": "view",
      "type": "function",
      "constant": true
    },
    {
      "inputs": [
        {
          "internalType": "address",
          "name": "",
          "type": "address"
        },
        {
          "internalType": "address",
          "name": "",
          "type": "address"
        }
      ],
      "name": "balances",
      "outputs": [
        {
          "internalType": "uint256",
          "name": "",
          "type": "uint256"
        }
      ],
      "stateMutability": "view",
      "type": "function",
      "constant": true
    },
    {
      "inputs": [
        {
          "internalType": "uint256",
          "name": "_amountIn",
          "type": "uint256"
        },
        {
          "internalType": "string",
          "name": "_inputToken",
          "type": "string"
        },
        {
          "internalType": "string",
          "name": "_outputToken",
          "type": "string"
        }
      ],
      "name": "convertInput2Output",
      "outputs": [
        {
          "internalType": "uint256",
          "name": "",
          "type": "uint256"
        }
      ],
      "stateMutability": "view",
      "type": "function",
      "constant": true
    },
    {
      "inputs": [
        {
          "internalType": "uint256",
          "name": "value",
          "type": "uint256"
        },
        {
          "internalType": "string",
          "name": "token",
          "type": "string"
        }
      ],
      "name": "deposit",
      "outputs": [],
      "stateMutability": "nonpayable",
      "type": "function"
    },
    {
      "inputs": [],
      "name": "getBankBalanceInUSD",
      "outputs": [
        {
          "internalType": "uint256",
          "name": "",
          "type": "uint256"
        }
      ],
      "stateMutability": "view",
      "type": "function",
      "constant": true
    },
    {
      "inputs": [
        {
          "internalType": "string",
          "name": "token",
          "type": "string"
        }
      ],
      "name": "getTokenBalance",
      "outputs": [
        {
          "internalType": "uint256",
          "name": "",
          "type": "uint256"
        }
      ],
      "stateMutability": "view",
      "type": "function",
      "constant": true
    },
    {
      "inputs": [
        {
          "internalType": "address",
          "name": "_token",
          "type": "address"
        }
      ],
      "name": "getTokenValue",
      "outputs": [
        {
          "internalType": "uint256",
          "name": "",
          "type": "uint256"
        },
        {
          "internalType": "uint256",
          "name": "",
          "type": "uint256"
        }
      ],
      "stateMutability": "view",
      "type": "function",
      "constant": true
    },
    {
      "inputs": [],
      "name": "owner",
      "outputs": [
        {
          "internalType": "address",
          "name": "",
          "type": "address"
        }
      ],
      "stateMutability": "view",
      "type": "function",
      "constant": true
    },
    {
      "inputs": [],
      "name": "poolFee",
      "outputs": [
        {
          "internalType": "uint24",
          "name": "",
          "type": "uint24"
        }
      ],
      "stateMutability": "view",
      "type": "function",
      "constant": true
    },
    {
      "inputs": [],
      "name": "renounceOwnership",
      "outputs": [],
      "stateMutability": "nonpayable",
      "type": "function"
    },
    {
      "inputs": [
        {
          "internalType": "string",
          "name": "token",
          "type": "string"
        },
        {
          "internalType": "uint256",
          "name": "amount",
          "type": "uint256"
        },
        {
          "internalType": "address",
          "name": "beneficiary",
          "type": "address"
        }
      ],
      "name": "send",
      "outputs": [],
      "stateMutability": "nonpayable",
      "type": "function"
    },
    {
      "inputs": [
        {
          "internalType": "address",
          "name": "_token",
          "type": "address"
        },
        {
          "internalType": "address",
          "name": "_priceFeed",
          "type": "address"
        }
      ],
      "name": "setPriceFeedContract",
      "outputs": [],
      "stateMutability": "nonpayable",
      "type": "function"
    },
    {
      "inputs": [
        {
          "internalType": "address",
          "name": "",
          "type": "address"
        }
      ],
      "name": "tokenPriceFeedMapping",
      "outputs": [
        {
          "internalType": "address",
          "name": "",
          "type": "address"
        }
      ],
      "stateMutability": "view",
      "type": "function",
      "constant": true
    },
    {
      "inputs": [
        {
          "internalType": "address",
          "name": "newOwner",
          "type": "address"
        }
      ],
      "name": "transferOwnership",
      "outputs": [],
      "stateMutability": "nonpayable",
      "type": "function"
    },
    {
      "inputs": [
        {
          "internalType": "string",
          "name": "token",
          "type": "string"
        },
        {
          "internalType": "uint256",
          "name": "amount",
          "type": "uint256"
        }
      ],
      "name": "withdraw",
      "outputs": [],
      "stateMutability": "nonpayable",
      "type": "function"
    },
    {
      "inputs": [
        {
          "internalType": "uint256",
          "name": "amountIn",
          "type": "uint256"
        },
        {
          "internalType": "string",
          "name": "inputToken",
          "type": "string"
        },
        {
          "internalType": "string",
          "name": "outputToken",
          "type": "string"
        }
      ],
      "name": "swapExactInputSingle",
      "outputs": [
        {
          "internalType": "uint256",
          "name": "amountOut",
          "type": "uint256"
        }
      ],
      "stateMutability": "nonpayable",
      "type": "function"
    }
  ],
  "bytecode": "0x60a06040523480156200001157600080fd5b506040516200209e3803806200209e8339810160408190526200003491620003b5565b6200003f3362000186565b80518251146200004e57600080fd5b60005b82518110156200017157600083828151811062000072576200007262000509565b60200260200101519050600083838151811062000093576200009362000509565b6020026020010151905080600283604051620000b091906200051f565b9081526040516020918190038201902080546001600160a01b03199081166001600160a01b03948516179091556003805460018181019092557fc2575a0e9e593c00f959f8c92f12db2869c3395a3b0502d05e2516446f71f85b018054909216938516939093179055600480549283018155600052835162000158927f8a35acfbc15ff81a39ae7d344fd709f28e8600b4aa8c65c6b64bfe7fe36bd19b0191850190620001d6565b505050808062000168906200053d565b91505062000051565b5050506001600160a01b0316608052620005a4565b600080546001600160a01b038381166001600160a01b0319831681178455604051919092169283917f8be0079c531659141344cd1fd0a4f28419497f9722a3daafe3b4186f6b6457e09190a35050565b828054620001e49062000567565b90600052602060002090601f01602090048101928262000208576000855562000253565b82601f106200022357805160ff191683800117855562000253565b8280016001018555821562000253579182015b828111156200025357825182559160200191906001019062000236565b506200026192915062000265565b5090565b5b8082111562000261576000815560010162000266565b6001600160a01b03811681146200029257600080fd5b50565b634e487b7160e01b600052604160045260246000fd5b604051601f8201601f191681016001600160401b0381118282101715620002d657620002d662000295565b604052919050565b60006001600160401b03821115620002fa57620002fa62000295565b5060051b60200190565b60005b838110156200032157818101518382015260200162000307565b8381111562000331576000848401525b50505050565b600082601f8301126200034957600080fd5b81516020620003626200035c83620002de565b620002ab565b82815260059290921b840181019181810190868411156200038257600080fd5b8286015b84811015620003aa5780516200039c816200027c565b835291830191830162000386565b509695505050505050565b600080600060608486031215620003cb57600080fd5b8351620003d8816200027c565b602085810151919450906001600160401b0380821115620003f857600080fd5b818701915087601f8301126200040d57600080fd5b81516200041e6200035c82620002de565b81815260059190911b8301840190848101908a8311156200043e57600080fd5b8585015b83811015620004d4578051858111156200045c5760008081fd5b8601603f81018d136200046f5760008081fd5b8781015160408782111562000488576200048862000295565b6200049c601f8301601f19168b01620002ab565b8281528f82848601011115620004b25760008081fd5b620004c3838c830184870162000304565b865250505091860191860162000442565b5060408a01519097509450505080831115620004ef57600080fd5b5050620004ff8682870162000337565b9150509250925092565b634e487b7160e01b600052603260045260246000fd5b600082516200053381846020870162000304565b9190910192915050565b60006000198214156200056057634e487b7160e01b600052601160045260246000fd5b5060010190565b600181811c908216806200057c57607f821691505b602082108114156200059e57634e487b7160e01b600052602260045260246000fd5b50919050565b608051611ad7620005c76000396000818161091a0152610a510152611ad76000f3fe608060405234801561001057600080fd5b506004361061010b5760003560e01c8063877dd39d116100a2578063c23f001f11610071578063c23f001f14610229578063f1215d2514610254578063f1c5d6c214610267578063f2fde38b1461028f578063fb9576da146102a257600080fd5b8063877dd39d146101ea5780638da5cb5b146101fd578063a0efb2181461020e578063a113a5a91461021657600080fd5b806330b39a62116100de57806330b39a62146101a957806349e102e2146101bc5780636fcd9313146101cf578063715018a6146101e257600080fd5b8063025abd5814610110578063089fe6aa146101365780630d40e2b31461015357806327927b3e14610168575b600080fd5b61012361011e3660046113a1565b6102d6565b6040519081526020015b60405180910390f35b61013f610bb881565b60405162ffffff909116815260200161012d565b610166610161366004611490565b610368565b005b610191610176366004611564565b6005602052600090815260409020546001600160a01b031681565b6040516001600160a01b03909116815260200161012d565b6101666101b7366004611586565b610519565b6101666101ca3660046115cb565b61069f565b6101236101dd366004611622565b610828565b610166610ac8565b6101666101f836600461168f565b610afe565b6000546001600160a01b0316610191565b610123610b7f565b610123610224366004611622565b610c91565b61012361023736600461168f565b600160209081526000928352604080842090915290825290205481565b6101666102623660046116c2565b610d22565b61027a610275366004611564565b610e5b565b6040805192835260208301919091520161012d565b61016661029d366004611564565b610f5c565b6101916102b03660046113a1565b80516020818301810180516002825292820191909301209152546001600160a01b031681565b6000806001600160a01b03166002836040516102f2919061172b565b908152604051908190036020019020546001600160a01b0316141561031657600080fd5b33600090815260016020526040808220905190919060029061033990869061172b565b9081526040805160209281900383019020546001600160a01b0316835290820192909252016000205492915050565b6000546001600160a01b0316331461039b5760405162461bcd60e51b815260040161039290611747565b60405180910390fd5b80518251146103a957600080fd5b60005b82518110156104be5760008382815181106103c9576103c961177c565b6020026020010151905060008383815181106103e7576103e761177c565b6020026020010151905080600283604051610402919061172b565b9081526040516020918190038201902080546001600160a01b03199081166001600160a01b03948516179091556003805460018181019092557fc2575a0e9e593c00f959f8c92f12db2869c3395a3b0502d05e2516446f71f85b01805490921693851693909317905560048054928301815560005283516104a8927f8a35acfbc15ff81a39ae7d344fd709f28e8600b4aa8c65c6b64bfe7fe36bd19b0191850190611251565b50505080806104b6906117a8565b9150506103ac565b5060405133906104cf9083906117c3565b6040518091039020836040516104e59190611802565b604051908190038120907f3a666b286cd7f0b1938fdc87e1147d56462ffe518db5b0c990310fa07c3288e690600090a45050565b33600090815260016020526040808220905183929060029061053c90879061172b565b9081526040805160209281900383019020546001600160a01b0316835290820192909252016000205410156105aa5760405162461bcd60e51b8152602060048201526014602482015273496e73756666696369656e742042616c616e636560601b6044820152606401610392565b3360009081526001602052604080822090518392906002906105cd90879061172b565b9081526040805160209281900383019020546001600160a01b03168352908201929092520160009081208054909190610607908490611842565b909155505060405160029061061d90849061172b565b9081526040519081900360200181205463a9059cbb60e01b8252336004830152602482018390526001600160a01b03169063a9059cbb906044016020604051808303816000875af1158015610676573d6000803e3d6000fd5b505050506040513d601f19601f8201168201806040525081019061069a9190611859565b505050565b3360009081526001602052604080822090518492906002906106c290889061172b565b9081526040805160209281900383019020546001600160a01b0316835290820192909252016000205410156107305760405162461bcd60e51b8152602060048201526014602482015273496e73756666696369656e742042616c616e636560601b6044820152606401610392565b33600090815260016020526040808220905184929060029061075390889061172b565b9081526040805160209281900383019020546001600160a01b0316835290820192909252016000908120805490919061078d908490611842565b90915550506040516002906107a390859061172b565b9081526040519081900360200181205463a9059cbb60e01b82526001600160a01b03838116600484015260248301859052169063a9059cbb906044016020604051808303816000875af11580156107fe573d6000803e3d6000fd5b505050506040513d601f19601f820116820180604052508101906108229190611859565b50505050565b600060028360405161083a919061172b565b9081526040519081900360200181205463095ea7b360e01b8252306004830152602482018690526001600160a01b03169063095ea7b3906044016020604051808303816000875af1158015610893573d6000803e3d6000fd5b505050506040513d601f19601f820116820180604052508101906108b79190611859565b506108ec6002846040516108cb919061172b565b908152604051908190036020019020546001600160a01b0316333087610ff7565b61093f6002846040516108ff919061172b565b908152604051908190036020019020546001600160a01b03167f000000000000000000000000000000000000000000000000000000000000000086611101565b600060405180610100016040528060028660405161095d919061172b565b9081526040805160209281900383019020546001600160a01b031683525191019060029061098c90879061172b565b9081526040805160209281900383019020546001600160a01b03168352610bb89183019190915233908201524260608201526080810187905260a0016109d3878787610c91565b815260006020918201526040805163414bf38960e01b815283516001600160a01b03908116600483015292840151831660248201529083015162ffffff1660448201526060830151821660648201526080830151608482015260a083015160a482015260c083015160c482015260e0830151821660e48201529192507f0000000000000000000000000000000000000000000000000000000000000000169063414bf38990610104016020604051808303816000875af1158015610a9b573d6000803e3d6000fd5b505050506040513d601f19601f82011682018060405250810190610abf919061187b565b95945050505050565b6000546001600160a01b03163314610af25760405162461bcd60e51b815260040161039290611747565b610afc6000611201565b565b6000546001600160a01b03163314610b285760405162461bcd60e51b815260040161039290611747565b6001600160a01b0382811660008181526005602052604080822080546001600160a01b0319169486169485179055517fb16d409940dc728462f5982a32c1fa960a0f3b7aec11139cf7787b7f7607cb619190a35050565b60008060005b600354811015610c8b57600080610bc260038481548110610ba857610ba861177c565b6000918252602090912001546001600160a01b0316610e5b565b9150915060006001600160a01b031660038481548110610be457610be461177c565b6000918252602090912001546001600160a01b031614610c7657610c0981600a61197a565b336000908152600160205260408120600380548693919088908110610c3057610c3061177c565b60009182526020808320909101546001600160a01b03168352820192909252604001902054610c5f9190611986565b610c6991906119a5565b610c7390856119c7565b93505b50508080610c83906117a8565b915050610b85565b50919050565b6000806000610cc7600286604051610ca9919061172b565b908152604051908190036020019020546001600160a01b0316610e5b565b90925090506000610cd982600a61197a565b610ce38489611986565b610ced91906119a5565b90506000610d04600287604051610ca9919061172b565b509050806000610d1482856119a5565b9a9950505050505050505050565b60006001600160a01b0316600282604051610d3d919061172b565b908152604051908190036020019020546001600160a01b03161415610d6157600080fd5b600281604051610d71919061172b565b908152604051908190036020018120546323b872dd60e01b8252336004830152306024830152604482018490526001600160a01b0316906323b872dd906064016020604051808303816000875af1158015610dd0573d6000803e3d6000fd5b505050506040513d601f19601f82011682018060405250810190610df49190611859565b50336000908152600160205260408082209051849290600290610e1890869061172b565b9081526040805160209281900383019020546001600160a01b03168352908201929092520160009081208054909190610e529084906119c7565b90915550505050565b6001600160a01b03808216600090815260056020526040808220548151633fabe5a360e21b815291519293849391169182918491839163feaf968c9160048082019260a0929091908290030181865afa158015610ebc573d6000803e3d6000fd5b505050506040513d601f19601f82011682018060405250810190610ee091906119f9565b5050509150506000826001600160a01b031663313ce5676040518163ffffffff1660e01b8152600401602060405180830381865afa158015610f26573d6000803e3d6000fd5b505050506040513d601f19601f82011682018060405250810190610f4a9190611a49565b919760ff909216965090945050505050565b6000546001600160a01b03163314610f865760405162461bcd60e51b815260040161039290611747565b6001600160a01b038116610feb5760405162461bcd60e51b815260206004820152602660248201527f4f776e61626c653a206e6577206f776e657220697320746865207a65726f206160448201526564647265737360d01b6064820152608401610392565b610ff481611201565b50565b604080516001600160a01b0385811660248301528481166044830152606480830185905283518084039091018152608490920183526020820180516001600160e01b03166323b872dd60e01b179052915160009283929088169161105b919061172b565b6000604051808303816000865af19150503d8060008114611098576040519150601f19603f3d011682016040523d82523d6000602084013e61109d565b606091505b50915091508180156110c75750805115806110c75750808060200190518101906110c79190611859565b6110f95760405162461bcd60e51b815260206004820152600360248201526229aa2360e91b6044820152606401610392565b505050505050565b604080516001600160a01b038481166024830152604480830185905283518084039091018152606490920183526020820180516001600160e01b031663095ea7b360e01b179052915160009283929087169161115d919061172b565b6000604051808303816000865af19150503d806000811461119a576040519150601f19603f3d011682016040523d82523d6000602084013e61119f565b606091505b50915091508180156111c95750805115806111c95750808060200190518101906111c99190611859565b6111fa5760405162461bcd60e51b8152602060048201526002602482015261534160f01b6044820152606401610392565b5050505050565b600080546001600160a01b038381166001600160a01b0319831681178455604051919092169283917f8be0079c531659141344cd1fd0a4f28419497f9722a3daafe3b4186f6b6457e09190a35050565b82805461125d90611a6c565b90600052602060002090601f01602090048101928261127f57600085556112c5565b82601f1061129857805160ff19168380011785556112c5565b828001600101855582156112c5579182015b828111156112c55782518255916020019190600101906112aa565b506112d19291506112d5565b5090565b5b808211156112d157600081556001016112d6565b634e487b7160e01b600052604160045260246000fd5b604051601f8201601f1916810167ffffffffffffffff81118282101715611329576113296112ea565b604052919050565b600082601f83011261134257600080fd5b813567ffffffffffffffff81111561135c5761135c6112ea565b61136f601f8201601f1916602001611300565b81815284602083860101111561138457600080fd5b816020850160208301376000918101602001919091529392505050565b6000602082840312156113b357600080fd5b813567ffffffffffffffff8111156113ca57600080fd5b6113d684828501611331565b949350505050565b600067ffffffffffffffff8211156113f8576113f86112ea565b5060051b60200190565b80356001600160a01b038116811461141957600080fd5b919050565b600082601f83011261142f57600080fd5b8135602061144461143f836113de565b611300565b82815260059290921b8401810191818101908684111561146357600080fd5b8286015b848110156114855761147881611402565b8352918301918301611467565b509695505050505050565b600080604083850312156114a357600080fd5b823567ffffffffffffffff808211156114bb57600080fd5b818501915085601f8301126114cf57600080fd5b813560206114df61143f836113de565b82815260059290921b840181019181810190898411156114fe57600080fd5b8286015b848110156115365780358681111561151a5760008081fd5b6115288c86838b0101611331565b845250918301918301611502565b509650508601359250508082111561154d57600080fd5b5061155a8582860161141e565b9150509250929050565b60006020828403121561157657600080fd5b61157f82611402565b9392505050565b6000806040838503121561159957600080fd5b823567ffffffffffffffff8111156115b057600080fd5b6115bc85828601611331565b95602094909401359450505050565b6000806000606084860312156115e057600080fd5b833567ffffffffffffffff8111156115f757600080fd5b61160386828701611331565b9350506020840135915061161960408501611402565b90509250925092565b60008060006060848603121561163757600080fd5b83359250602084013567ffffffffffffffff8082111561165657600080fd5b61166287838801611331565b9350604086013591508082111561167857600080fd5b5061168586828701611331565b9150509250925092565b600080604083850312156116a257600080fd5b6116ab83611402565b91506116b960208401611402565b90509250929050565b600080604083850312156116d557600080fd5b82359150602083013567ffffffffffffffff8111156116f357600080fd5b61155a85828601611331565b60005b8381101561171a578181015183820152602001611702565b838111156108225750506000910152565b6000825161173d8184602087016116ff565b9190910192915050565b6020808252818101527f4f776e61626c653a2063616c6c6572206973206e6f7420746865206f776e6572604082015260600190565b634e487b7160e01b600052603260045260246000fd5b634e487b7160e01b600052601160045260246000fd5b60006000198214156117bc576117bc611792565b5060010190565b815160009082906020808601845b838110156117f65781516001600160a01b0316855293820193908201906001016117d1565b50929695505050505050565b815160009082906020808601845b838110156117f6578151805161182981888785016116ff565b601f01601f191695909501945090820190600101611810565b60008282101561185457611854611792565b500390565b60006020828403121561186b57600080fd5b8151801515811461157f57600080fd5b60006020828403121561188d57600080fd5b5051919050565b600181815b808511156118cf5781600019048211156118b5576118b5611792565b808516156118c257918102915b93841c9390800290611899565b509250929050565b6000826118e657506001611974565b816118f357506000611974565b816001811461190957600281146119135761192f565b6001915050611974565b60ff84111561192457611924611792565b50506001821b611974565b5060208310610133831016604e8410600b8410161715611952575081810a611974565b61195c8383611894565b806000190482111561197057611970611792565b0290505b92915050565b600061157f83836118d7565b60008160001904831182151516156119a0576119a0611792565b500290565b6000826119c257634e487b7160e01b600052601260045260246000fd5b500490565b600082198211156119da576119da611792565b500190565b805169ffffffffffffffffffff8116811461141957600080fd5b600080600080600060a08688031215611a1157600080fd5b611a1a866119df565b9450602086015193506040860151925060608601519150611a3d608087016119df565b90509295509295909350565b600060208284031215611a5b57600080fd5b815160ff8116811461157f57600080fd5b600181811c90821680611a8057607f821691505b60208210811415610c8b57634e487b7160e01b600052602260045260246000fdfea2646970667358221220aa0518378915862e2a6116f1f29263f10845651cd1d057ac1b3e2a978ed4ab9f64736f6c634300080a0033",
  "immutableReferences": {
    "1670": [
      {
        "length": 32,
        "start": 2330
      },
      {
        "length": 32,
        "start": 2641
      }
    ]
  },
  "source": "// SPDX-License-Identifier: MIT\npragma solidity ^0.8.0;\npragma abicoder v2;\n\nimport \"./Bank.sol\";\n\ncontract TokenSwap is Bank {\n  // For the scope of these swap examples,\n  // we will detail the design considerations when using\n  // `exactInput`, `exactInputSingle`, `exactOutput`, and  `exactOutputSingle`.\n\n  // It should be noted that for the sake of these examples, we purposefully pass in the swap router instead of inherit the swap router for simplicity.\n  // More advanced example contracts will detail how to inherit the swap router safely.\n\n  \n\n  // This example swaps DAI/WETH9 for single path swaps and DAI/USDC/WETH9 for multi path swaps.\n\n\n  ISwapRouter immutable swapRouter;\n  \n  constructor(ISwapRouter _swapRouter, string[] memory tokenNames, address[] memory tokenAddresses) {\n    require(tokenNames.length==tokenAddresses.length);\n    for (uint i=0; i<tokenNames.length; i++){\n      string memory tokenName=tokenNames[i];\n      address tokenAddress=tokenAddresses[i];\n      allowedTokens[tokenName]=tokenAddress;\n      allowedTokensList.push(tokenAddress);\n      allowedTokenNamesList.push(tokenName);\n    }\n    swapRouter = _swapRouter;\n  }\n\n  // For this example, we will set the pool fee to 0.3%.\n  uint24 public constant poolFee = 3000;\n\n  /// @notice swapExactInputSingle swaps a fixed amount of DAI for a maximum possible amount of WETH9\n  /// using the DAI/WETH9 0.3% pool by calling `exactInputSingle` in the swap router.\n  /// @dev The calling address must approve this contract to spend at least `amountIn` worth of its DAI for this function to succeed.\n  /// @param amountIn The exact amount of DAI that will be swapped for WETH9.\n  /// @return amountOut The amount of WETH9 received.\n  function swapExactInputSingle(uint256 amountIn, string memory inputToken, string memory outputToken) external returns (uint256 amountOut) {\n    \n    // msg.sender must approve this contract\n    IERC20(allowedTokens[inputToken]).approve(address(this), amountIn);\n\n    // Transfer the specified amount of DAI to this contract.\n    TransferHelper.safeTransferFrom(allowedTokens[inputToken], msg.sender, address(this), amountIn);\n\n    // Approve the router to spend DAI.\n    TransferHelper.safeApprove(allowedTokens[inputToken], address(swapRouter), amountIn);\n\n    // Naively set amountOutMinimum to 0. In production, use an oracle or other data source to choose a safer value for amountOutMinimum.\n    // We also set the sqrtPriceLimitx96 to be 0 to ensure we swap our exact input amount.\n    ISwapRouter.ExactInputSingleParams memory params =\n      ISwapRouter.ExactInputSingleParams({\n          tokenIn: allowedTokens[inputToken],\n          tokenOut: allowedTokens[outputToken],\n          fee: poolFee,\n          recipient: msg.sender,\n          deadline: block.timestamp,\n          amountIn: amountIn,\n          amountOutMinimum: convertInput2Output(amountIn, inputToken, outputToken),\n          sqrtPriceLimitX96: 0\n      });\n\n      // The call to `exactInputSingle` executes the swap.\n      amountOut = swapRouter.exactInputSingle(params);\n  }\n}",
  "sourcePath": "/Users/nerdjango/Documents/GitHub/Tibraun-Defi/contracts/TokenSwap.sol",
  "compiler": {
    "name": "solc",
    "version": "0.8.10+commit.fc410830.Emscripten.clang"
  },
  "schemaVersion": "3.4.3",
  "updatedAt": "2021-12-12T11:42:27.159Z",
  "networkType": "ethereum",
  "devdoc": {
    "kind": "dev",
    "methods": {
      "owner()": {
        "details": "Returns the address of the current owner."
      },
      "renounceOwnership()": {
        "details": "Leaves the contract without owner. It will not be possible to call `onlyOwner` functions anymore. Can only be called by the current owner. NOTE: Renouncing ownership will leave the contract without an owner, thereby removing any functionality that is only available to the owner."
      },
      "swapExactInputSingle(uint256,string,string)": {
        "details": "The calling address must approve this contract to spend at least `amountIn` worth of its DAI for this function to succeed.",
        "params": {
          "amountIn": "The exact amount of DAI that will be swapped for WETH9."
        },
        "returns": {
          "amountOut": "The amount of WETH9 received."
        }
      },
      "transferOwnership(address)": {
        "details": "Transfers ownership of the contract to a new account (`newOwner`). Can only be called by the current owner."
      }
    },
    "version": 1
  },
  "userdoc": {
    "kind": "user",
    "methods": {
      "swapExactInputSingle(uint256,string,string)": {
        "notice": "swapExactInputSingle swaps a fixed amount of DAI for a maximum possible amount of WETH9 using the DAI/WETH9 0.3% pool by calling `exactInputSingle` in the swap router."
      }
    },
    "version": 1
  }
}