{
  "contractName": "TokenSwap",
  "abi": [
    {
      "inputs": [
        {
          "internalType": "contract ISwapRouter",
          "name": "_swapRouter",
          "type": "address"
        },
        {
          "internalType": "string[]",
          "name": "tokenNames",
          "type": "string[]"
        },
        {
          "internalType": "address[]",
          "name": "tokenAddresses",
          "type": "address[]"
        }
      ],
      "stateMutability": "nonpayable",
      "type": "constructor"
    },
    {
      "anonymous": false,
      "inputs": [
        {
          "indexed": true,
          "internalType": "string[]",
          "name": "tokenNames",
          "type": "string[]"
        },
        {
          "indexed": true,
          "internalType": "address[]",
          "name": "tokenAddresses",
          "type": "address[]"
        },
        {
          "indexed": true,
          "internalType": "address",
          "name": "sender",
          "type": "address"
        }
      ],
      "name": "AllowedTokensAdded",
      "type": "event"
    },
    {
      "anonymous": false,
      "inputs": [
        {
          "indexed": true,
          "internalType": "address",
          "name": "token",
          "type": "address"
        },
        {
          "indexed": true,
          "internalType": "address",
          "name": "priceFeed",
          "type": "address"
        }
      ],
      "name": "NewPriceFeedContract",
      "type": "event"
    },
    {
      "anonymous": false,
      "inputs": [
        {
          "indexed": true,
          "internalType": "address",
          "name": "previousOwner",
          "type": "address"
        },
        {
          "indexed": true,
          "internalType": "address",
          "name": "newOwner",
          "type": "address"
        }
      ],
      "name": "OwnershipTransferred",
      "type": "event"
    },
    {
      "inputs": [
        {
          "internalType": "string[]",
          "name": "tokenNames",
          "type": "string[]"
        },
        {
          "internalType": "address[]",
          "name": "tokenAddresses",
          "type": "address[]"
        }
      ],
      "name": "addAllowedTokens",
      "outputs": [],
      "stateMutability": "nonpayable",
      "type": "function"
    },
    {
      "inputs": [
        {
          "internalType": "string",
          "name": "",
          "type": "string"
        }
      ],
      "name": "allowedTokens",
      "outputs": [
        {
          "internalType": "address",
          "name": "",
          "type": "address"
        }
      ],
      "stateMutability": "view",
      "type": "function",
      "constant": true
    },
    {
      "inputs": [
        {
          "internalType": "address",
          "name": "",
          "type": "address"
        },
        {
          "internalType": "address",
          "name": "",
          "type": "address"
        }
      ],
      "name": "balances",
      "outputs": [
        {
          "internalType": "uint256",
          "name": "",
          "type": "uint256"
        }
      ],
      "stateMutability": "view",
      "type": "function",
      "constant": true
    },
    {
      "inputs": [
        {
          "internalType": "uint256",
          "name": "_amountIn",
          "type": "uint256"
        },
        {
          "internalType": "string",
          "name": "_inputToken",
          "type": "string"
        },
        {
          "internalType": "string",
          "name": "_outputToken",
          "type": "string"
        }
      ],
      "name": "convertInput2Output",
      "outputs": [
        {
          "internalType": "uint256",
          "name": "",
          "type": "uint256"
        }
      ],
      "stateMutability": "view",
      "type": "function",
      "constant": true
    },
    {
      "inputs": [
        {
          "internalType": "uint256",
          "name": "value",
          "type": "uint256"
        },
        {
          "internalType": "string",
          "name": "token",
          "type": "string"
        }
      ],
      "name": "deposit",
      "outputs": [],
      "stateMutability": "nonpayable",
      "type": "function"
    },
    {
      "inputs": [],
      "name": "getBankBalanceInUSD",
      "outputs": [
        {
          "internalType": "uint256",
          "name": "",
          "type": "uint256"
        }
      ],
      "stateMutability": "view",
      "type": "function",
      "constant": true
    },
    {
      "inputs": [
        {
          "internalType": "string",
          "name": "token",
          "type": "string"
        }
      ],
      "name": "getTokenBalance",
      "outputs": [
        {
          "internalType": "uint256",
          "name": "",
          "type": "uint256"
        }
      ],
      "stateMutability": "view",
      "type": "function",
      "constant": true
    },
    {
      "inputs": [
        {
          "internalType": "address",
          "name": "_token",
          "type": "address"
        }
      ],
      "name": "getTokenValue",
      "outputs": [
        {
          "internalType": "uint256",
          "name": "",
          "type": "uint256"
        },
        {
          "internalType": "uint256",
          "name": "",
          "type": "uint256"
        }
      ],
      "stateMutability": "view",
      "type": "function",
      "constant": true
    },
    {
      "inputs": [],
      "name": "owner",
      "outputs": [
        {
          "internalType": "address",
          "name": "",
          "type": "address"
        }
      ],
      "stateMutability": "view",
      "type": "function",
      "constant": true
    },
    {
      "inputs": [],
      "name": "poolFee",
      "outputs": [
        {
          "internalType": "uint24",
          "name": "",
          "type": "uint24"
        }
      ],
      "stateMutability": "view",
      "type": "function",
      "constant": true
    },
    {
      "inputs": [],
      "name": "renounceOwnership",
      "outputs": [],
      "stateMutability": "nonpayable",
      "type": "function"
    },
    {
      "inputs": [
        {
          "internalType": "string",
          "name": "token",
          "type": "string"
        },
        {
          "internalType": "uint256",
          "name": "amount",
          "type": "uint256"
        },
        {
          "internalType": "address",
          "name": "beneficiary",
          "type": "address"
        }
      ],
      "name": "send",
      "outputs": [],
      "stateMutability": "nonpayable",
      "type": "function"
    },
    {
      "inputs": [
        {
          "internalType": "address",
          "name": "_token",
          "type": "address"
        },
        {
          "internalType": "address",
          "name": "_priceFeed",
          "type": "address"
        }
      ],
      "name": "setPriceFeedContract",
      "outputs": [],
      "stateMutability": "nonpayable",
      "type": "function"
    },
    {
      "inputs": [
        {
          "internalType": "address",
          "name": "",
          "type": "address"
        }
      ],
      "name": "tokenPriceFeedMapping",
      "outputs": [
        {
          "internalType": "address",
          "name": "",
          "type": "address"
        }
      ],
      "stateMutability": "view",
      "type": "function",
      "constant": true
    },
    {
      "inputs": [
        {
          "internalType": "address",
          "name": "newOwner",
          "type": "address"
        }
      ],
      "name": "transferOwnership",
      "outputs": [],
      "stateMutability": "nonpayable",
      "type": "function"
    },
    {
      "inputs": [
        {
          "internalType": "string",
          "name": "token",
          "type": "string"
        },
        {
          "internalType": "uint256",
          "name": "amount",
          "type": "uint256"
        }
      ],
      "name": "withdraw",
      "outputs": [],
      "stateMutability": "nonpayable",
      "type": "function"
    },
    {
      "inputs": [
        {
          "internalType": "uint256",
          "name": "amountIn",
          "type": "uint256"
        },
        {
          "internalType": "string",
          "name": "inputToken",
          "type": "string"
        },
        {
          "internalType": "string",
          "name": "outputToken",
          "type": "string"
        }
      ],
      "name": "swapExactInputSingle",
      "outputs": [
        {
          "internalType": "uint256",
          "name": "amountOut",
          "type": "uint256"
        }
      ],
      "stateMutability": "nonpayable",
      "type": "function"
    }
  ],
  "bytecode": "0x60a06040523480156200001157600080fd5b5060405162003acf38038062003acf8339818101604052810190620000379190620007a2565b620000576200004b6200020d60201b60201c565b6200021560201b60201c565b80518251146200006657600080fd5b60005b8251811015620001cf5760008382815181106200008b576200008a6200083c565b5b602002602001015190506000838381518110620000ad57620000ac6200083c565b5b6020026020010151905080600283604051620000ca9190620008b8565b908152602001604051809103902060006101000a81548173ffffffffffffffffffffffffffffffffffffffff021916908373ffffffffffffffffffffffffffffffffffffffff1602179055506003819080600181540180825580915050600190039060005260206000200160009091909190916101000a81548173ffffffffffffffffffffffffffffffffffffffff021916908373ffffffffffffffffffffffffffffffffffffffff160217905550600482908060018154018082558091505060019003906000526020600020016000909190919091509080519060200190620001b6929190620002d9565b5050508080620001c6906200090a565b91505062000069565b508273ffffffffffffffffffffffffffffffffffffffff1660808173ffffffffffffffffffffffffffffffffffffffff1681525050505050620009bd565b600033905090565b60008060009054906101000a900473ffffffffffffffffffffffffffffffffffffffff169050816000806101000a81548173ffffffffffffffffffffffffffffffffffffffff021916908373ffffffffffffffffffffffffffffffffffffffff1602179055508173ffffffffffffffffffffffffffffffffffffffff168173ffffffffffffffffffffffffffffffffffffffff167f8be0079c531659141344cd1fd0a4f28419497f9722a3daafe3b4186f6b6457e060405160405180910390a35050565b828054620002e79062000987565b90600052602060002090601f0160209004810192826200030b576000855562000357565b82601f106200032657805160ff191683800117855562000357565b8280016001018555821562000357579182015b828111156200035657825182559160200191906001019062000339565b5b5090506200036691906200036a565b5090565b5b80821115620003855760008160009055506001016200036b565b5090565b6000604051905090565b600080fd5b600080fd5b600073ffffffffffffffffffffffffffffffffffffffff82169050919050565b6000620003ca826200039d565b9050919050565b6000620003de82620003bd565b9050919050565b620003f081620003d1565b8114620003fc57600080fd5b50565b6000815190506200041081620003e5565b92915050565b600080fd5b6000601f19601f8301169050919050565b7f4e487b7100000000000000000000000000000000000000000000000000000000600052604160045260246000fd5b62000466826200041b565b810181811067ffffffffffffffff821117156200048857620004876200042c565b5b80604052505050565b60006200049d62000389565b9050620004ab82826200045b565b919050565b600067ffffffffffffffff821115620004ce57620004cd6200042c565b5b602082029050602081019050919050565b600080fd5b600080fd5b600067ffffffffffffffff8211156200050757620005066200042c565b5b62000512826200041b565b9050602081019050919050565b60005b838110156200053f57808201518184015260208101905062000522565b838111156200054f576000848401525b50505050565b60006200056c6200056684620004e9565b62000491565b9050828152602081018484840111156200058b576200058a620004e4565b5b620005988482856200051f565b509392505050565b600082601f830112620005b857620005b762000416565b5b8151620005ca84826020860162000555565b91505092915050565b6000620005ea620005e484620004b0565b62000491565b9050808382526020820190506020840283018581111562000610576200060f620004df565b5b835b818110156200065e57805167ffffffffffffffff81111562000639576200063862000416565b5b808601620006488982620005a0565b8552602085019450505060208101905062000612565b5050509392505050565b600082601f83011262000680576200067f62000416565b5b815162000692848260208601620005d3565b91505092915050565b600067ffffffffffffffff821115620006b957620006b86200042c565b5b602082029050602081019050919050565b620006d581620003bd565b8114620006e157600080fd5b50565b600081519050620006f581620006ca565b92915050565b6000620007126200070c846200069b565b62000491565b90508083825260208201905060208402830185811115620007385762000737620004df565b5b835b81811015620007655780620007508882620006e4565b8452602084019350506020810190506200073a565b5050509392505050565b600082601f83011262000787576200078662000416565b5b815162000799848260208601620006fb565b91505092915050565b600080600060608486031215620007be57620007bd62000393565b5b6000620007ce86828701620003ff565b935050602084015167ffffffffffffffff811115620007f257620007f162000398565b5b620008008682870162000668565b925050604084015167ffffffffffffffff81111562000824576200082362000398565b5b62000832868287016200076f565b9150509250925092565b7f4e487b7100000000000000000000000000000000000000000000000000000000600052603260045260246000fd5b600081519050919050565b600081905092915050565b60006200088e826200086b565b6200089a818562000876565b9350620008ac8185602086016200051f565b80840191505092915050565b6000620008c6828462000881565b915081905092915050565b7f4e487b7100000000000000000000000000000000000000000000000000000000600052601160045260246000fd5b6000819050919050565b6000620009178262000900565b91507fffffffffffffffffffffffffffffffffffffffffffffffffffffffffffffffff8214156200094d576200094c620008d1565b5b600182019050919050565b7f4e487b7100000000000000000000000000000000000000000000000000000000600052602260045260246000fd5b60006002820490506001821680620009a057607f821691505b60208210811415620009b757620009b662000958565b5b50919050565b6080516130ef620009e060003960008181610da60152610ef101526130ef6000f3fe608060405234801561001057600080fd5b506004361061010b5760003560e01c8063877dd39d116100a2578063c23f001f11610071578063c23f001f146102a4578063f1215d25146102d4578063f1c5d6c2146102f0578063f2fde38b14610321578063fb9576da1461033d5761010b565b8063877dd39d1461021c5780638da5cb5b14610238578063a0efb21814610256578063a113a5a9146102745761010b565b806330b39a62116100de57806330b39a62146101aa57806349e102e2146101c65780636fcd9313146101e2578063715018a6146102125761010b565b8063025abd5814610110578063089fe6aa146101405780630d40e2b31461015e57806327927b3e1461017a575b600080fd5b61012a60048036038101906101259190611eb1565b61036d565b6040516101379190611f13565b60405180910390f35b6101486104a8565b6040516101559190611f4c565b60405180910390f35b6101786004803603810190610173919061216e565b6104ae565b005b610194600480360381019061018f91906121e6565b610707565b6040516101a19190612222565b60405180910390f35b6101c460048036038101906101bf9190612269565b61073a565b005b6101e060048036038101906101db91906122c5565b6109c9565b005b6101fc60048036038101906101f79190612334565b610c59565b6040516102099190611f13565b60405180910390f35b61021a610f95565b005b610236600480360381019061023191906123bf565b61101d565b005b610240611175565b60405161024d9190612222565b60405180910390f35b61025e61119e565b60405161026b9190611f13565b60405180910390f35b61028e60048036038101906102899190612334565b611379565b60405161029b9190611f13565b60405180910390f35b6102be60048036038101906102b991906123bf565b611461565b6040516102cb9190611f13565b60405180910390f35b6102ee60048036038101906102e991906123ff565b611486565b005b61030a600480360381019061030591906121e6565b611692565b60405161031892919061245b565b60405180910390f35b61033b600480360381019061033691906121e6565b6117fa565b005b61035760048036038101906103529190611eb1565b6118f2565b6040516103649190612222565b60405180910390f35b60008073ffffffffffffffffffffffffffffffffffffffff1660028360405161039691906124fe565b908152602001604051809103902060009054906101000a900473ffffffffffffffffffffffffffffffffffffffff1673ffffffffffffffffffffffffffffffffffffffff1614156103e657600080fd5b600160003373ffffffffffffffffffffffffffffffffffffffff1673ffffffffffffffffffffffffffffffffffffffff168152602001908152602001600020600060028460405161043791906124fe565b908152602001604051809103902060009054906101000a900473ffffffffffffffffffffffffffffffffffffffff1673ffffffffffffffffffffffffffffffffffffffff1673ffffffffffffffffffffffffffffffffffffffff168152602001908152602001600020549050919050565b610bb881565b6104b661193b565b73ffffffffffffffffffffffffffffffffffffffff166104d4611175565b73ffffffffffffffffffffffffffffffffffffffff161461052a576040517f08c379a000000000000000000000000000000000000000000000000000000000815260040161052190612572565b60405180910390fd5b805182511461053857600080fd5b60005b825181101561069357600083828151811061055957610558612592565b5b60200260200101519050600083838151811061057857610577612592565b5b602002602001015190508060028360405161059391906124fe565b908152602001604051809103902060006101000a81548173ffffffffffffffffffffffffffffffffffffffff021916908373ffffffffffffffffffffffffffffffffffffffff1602179055506003819080600181540180825580915050600190039060005260206000200160009091909190916101000a81548173ffffffffffffffffffffffffffffffffffffffff021916908373ffffffffffffffffffffffffffffffffffffffff16021790555060048290806001815401808255809150506001900390600052602060002001600090919091909150908051906020019061067d929190611cb4565b505050808061068b906125f0565b91505061053b565b503373ffffffffffffffffffffffffffffffffffffffff16816040516106b991906126f1565b6040518091039020836040516106cf91906127f1565b60405180910390207f3a666b286cd7f0b1938fdc87e1147d56462ffe518db5b0c990310fa07c3288e660405160405180910390a45050565b60056020528060005260406000206000915054906101000a900473ffffffffffffffffffffffffffffffffffffffff1681565b80600160003373ffffffffffffffffffffffffffffffffffffffff1673ffffffffffffffffffffffffffffffffffffffff168152602001908152602001600020600060028560405161078c91906124fe565b908152602001604051809103902060009054906101000a900473ffffffffffffffffffffffffffffffffffffffff1673ffffffffffffffffffffffffffffffffffffffff1673ffffffffffffffffffffffffffffffffffffffff168152602001908152602001600020541015610837576040517f08c379a000000000000000000000000000000000000000000000000000000000815260040161082e90612854565b60405180910390fd5b80600160003373ffffffffffffffffffffffffffffffffffffffff1673ffffffffffffffffffffffffffffffffffffffff168152602001908152602001600020600060028560405161088991906124fe565b908152602001604051809103902060009054906101000a900473ffffffffffffffffffffffffffffffffffffffff1673ffffffffffffffffffffffffffffffffffffffff1673ffffffffffffffffffffffffffffffffffffffff16815260200190815260200160002060008282546109019190612874565b9250508190555060028260405161091891906124fe565b908152602001604051809103902060009054906101000a900473ffffffffffffffffffffffffffffffffffffffff1673ffffffffffffffffffffffffffffffffffffffff1663a9059cbb33836040518363ffffffff1660e01b81526004016109819291906128a8565b6020604051808303816000875af11580156109a0573d6000803e3d6000fd5b505050506040513d601f19601f820116820180604052508101906109c49190612909565b505050565b81600160003373ffffffffffffffffffffffffffffffffffffffff1673ffffffffffffffffffffffffffffffffffffffff1681526020019081526020016000206000600286604051610a1b91906124fe565b908152602001604051809103902060009054906101000a900473ffffffffffffffffffffffffffffffffffffffff1673ffffffffffffffffffffffffffffffffffffffff1673ffffffffffffffffffffffffffffffffffffffff168152602001908152602001600020541015610ac6576040517f08c379a0000000000000000000000000000000000000000000000000000000008152600401610abd90612854565b60405180910390fd5b81600160003373ffffffffffffffffffffffffffffffffffffffff1673ffffffffffffffffffffffffffffffffffffffff1681526020019081526020016000206000600286604051610b1891906124fe565b908152602001604051809103902060009054906101000a900473ffffffffffffffffffffffffffffffffffffffff1673ffffffffffffffffffffffffffffffffffffffff1673ffffffffffffffffffffffffffffffffffffffff1681526020019081526020016000206000828254610b909190612874565b92505081905550600283604051610ba791906124fe565b908152602001604051809103902060009054906101000a900473ffffffffffffffffffffffffffffffffffffffff1673ffffffffffffffffffffffffffffffffffffffff1663a9059cbb82846040518363ffffffff1660e01b8152600401610c109291906128a8565b6020604051808303816000875af1158015610c2f573d6000803e3d6000fd5b505050506040513d601f19601f82011682018060405250810190610c539190612909565b50505050565b6000600283604051610c6b91906124fe565b908152602001604051809103902060009054906101000a900473ffffffffffffffffffffffffffffffffffffffff1673ffffffffffffffffffffffffffffffffffffffff1663095ea7b330866040518363ffffffff1660e01b8152600401610cd49291906128a8565b6020604051808303816000875af1158015610cf3573d6000803e3d6000fd5b505050506040513d601f19601f82011682018060405250810190610d179190612909565b50610d62600284604051610d2b91906124fe565b908152602001604051809103902060009054906101000a900473ffffffffffffffffffffffffffffffffffffffff16333087611943565b610dcb600284604051610d7591906124fe565b908152602001604051809103902060009054906101000a900473ffffffffffffffffffffffffffffffffffffffff167f000000000000000000000000000000000000000000000000000000000000000086611a9b565b6000604051806101000160405280600286604051610de991906124fe565b908152602001604051809103902060009054906101000a900473ffffffffffffffffffffffffffffffffffffffff1673ffffffffffffffffffffffffffffffffffffffff168152602001600285604051610e4391906124fe565b908152602001604051809103902060009054906101000a900473ffffffffffffffffffffffffffffffffffffffff1673ffffffffffffffffffffffffffffffffffffffff168152602001610bb862ffffff1681526020013373ffffffffffffffffffffffffffffffffffffffff168152602001428152602001868152602001610ecd878787611379565b8152602001600073ffffffffffffffffffffffffffffffffffffffff1681525090507f000000000000000000000000000000000000000000000000000000000000000073ffffffffffffffffffffffffffffffffffffffff1663414bf389826040518263ffffffff1660e01b8152600401610f489190612a14565b6020604051808303816000875af1158015610f67573d6000803e3d6000fd5b505050506040513d601f19601f82011682018060405250810190610f8b9190612a45565b9150509392505050565b610f9d61193b565b73ffffffffffffffffffffffffffffffffffffffff16610fbb611175565b73ffffffffffffffffffffffffffffffffffffffff1614611011576040517f08c379a000000000000000000000000000000000000000000000000000000000815260040161100890612572565b60405180910390fd5b61101b6000611bf0565b565b61102561193b565b73ffffffffffffffffffffffffffffffffffffffff16611043611175565b73ffffffffffffffffffffffffffffffffffffffff1614611099576040517f08c379a000000000000000000000000000000000000000000000000000000000815260040161109090612572565b60405180910390fd5b80600560008473ffffffffffffffffffffffffffffffffffffffff1673ffffffffffffffffffffffffffffffffffffffff16815260200190815260200160002060006101000a81548173ffffffffffffffffffffffffffffffffffffffff021916908373ffffffffffffffffffffffffffffffffffffffff1602179055508073ffffffffffffffffffffffffffffffffffffffff168273ffffffffffffffffffffffffffffffffffffffff167fb16d409940dc728462f5982a32c1fa960a0f3b7aec11139cf7787b7f7607cb6160405160405180910390a35050565b60008060009054906101000a900473ffffffffffffffffffffffffffffffffffffffff16905090565b60008060005b600380549050811015611371576000806111fb600384815481106111cb576111ca612592565b5b9060005260206000200160009054906101000a900473ffffffffffffffffffffffffffffffffffffffff16611692565b91509150600073ffffffffffffffffffffffffffffffffffffffff166003848154811061122b5761122a612592565b5b9060005260206000200160009054906101000a900473ffffffffffffffffffffffffffffffffffffffff1673ffffffffffffffffffffffffffffffffffffffff161461135c5780600a61127e9190612ba5565b82600160003373ffffffffffffffffffffffffffffffffffffffff1673ffffffffffffffffffffffffffffffffffffffff1681526020019081526020016000206000600387815481106112d4576112d3612592565b5b9060005260206000200160009054906101000a900473ffffffffffffffffffffffffffffffffffffffff1673ffffffffffffffffffffffffffffffffffffffff1673ffffffffffffffffffffffffffffffffffffffff168152602001908152602001600020546113449190612bf0565b61134e9190612c79565b846113599190612caa565b93505b50508080611369906125f0565b9150506111a4565b508091505090565b60008060006113c560028660405161139191906124fe565b908152602001604051809103902060009054906101000a900473ffffffffffffffffffffffffffffffffffffffff16611692565b91509150600081600a6113d89190612ba5565b83886113e49190612bf0565b6113ee9190612c79565b9050600061143960028760405161140591906124fe565b908152602001604051809103902060009054906101000a900473ffffffffffffffffffffffffffffffffffffffff16611692565b50905060008190506000818461144f9190612c79565b90508096505050505050509392505050565b6001602052816000526040600020602052806000526040600020600091509150505481565b600073ffffffffffffffffffffffffffffffffffffffff166002826040516114ae91906124fe565b908152602001604051809103902060009054906101000a900473ffffffffffffffffffffffffffffffffffffffff1673ffffffffffffffffffffffffffffffffffffffff1614156114fe57600080fd5b60028160405161150e91906124fe565b908152602001604051809103902060009054906101000a900473ffffffffffffffffffffffffffffffffffffffff1673ffffffffffffffffffffffffffffffffffffffff166323b872dd3330856040518463ffffffff1660e01b815260040161157993929190612d00565b6020604051808303816000875af1158015611598573d6000803e3d6000fd5b505050506040513d601f19601f820116820180604052508101906115bc9190612909565b5081600160003373ffffffffffffffffffffffffffffffffffffffff1673ffffffffffffffffffffffffffffffffffffffff168152602001908152602001600020600060028460405161160f91906124fe565b908152602001604051809103902060009054906101000a900473ffffffffffffffffffffffffffffffffffffffff1673ffffffffffffffffffffffffffffffffffffffff1673ffffffffffffffffffffffffffffffffffffffff16815260200190815260200160002060008282546116879190612caa565b925050819055505050565b6000806000600560008573ffffffffffffffffffffffffffffffffffffffff1673ffffffffffffffffffffffffffffffffffffffff16815260200190815260200160002060009054906101000a900473ffffffffffffffffffffffffffffffffffffffff169050600081905060008173ffffffffffffffffffffffffffffffffffffffff1663feaf968c6040518163ffffffff1660e01b815260040160a060405180830381865afa15801561174b573d6000803e3d6000fd5b505050506040513d601f19601f8201168201806040525081019061176f9190612daf565b50505091505060008273ffffffffffffffffffffffffffffffffffffffff1663313ce5676040518163ffffffff1660e01b8152600401602060405180830381865afa1580156117c2573d6000803e3d6000fd5b505050506040513d601f19601f820116820180604052508101906117e69190612e63565b60ff16905081819550955050505050915091565b61180261193b565b73ffffffffffffffffffffffffffffffffffffffff16611820611175565b73ffffffffffffffffffffffffffffffffffffffff1614611876576040517f08c379a000000000000000000000000000000000000000000000000000000000815260040161186d90612572565b60405180910390fd5b600073ffffffffffffffffffffffffffffffffffffffff168173ffffffffffffffffffffffffffffffffffffffff1614156118e6576040517f08c379a00000000000000000000000000000000000000000000000000000000081526004016118dd90612f02565b60405180910390fd5b6118ef81611bf0565b50565b6002818051602081018201805184825260208301602085012081835280955050505050506000915054906101000a900473ffffffffffffffffffffffffffffffffffffffff1681565b600033905090565b6000808573ffffffffffffffffffffffffffffffffffffffff166323b872dd60e01b86868660405160240161197a93929190612d00565b604051602081830303815290604052907bffffffffffffffffffffffffffffffffffffffffffffffffffffffff19166020820180517bffffffffffffffffffffffffffffffffffffffffffffffffffffffff83818316178352505050506040516119e49190612f69565b6000604051808303816000865af19150503d8060008114611a21576040519150601f19603f3d011682016040523d82523d6000602084013e611a26565b606091505b5091509150818015611a545750600081511480611a53575080806020019051810190611a529190612909565b5b5b611a93576040517f08c379a0000000000000000000000000000000000000000000000000000000008152600401611a8a90612fcc565b60405180910390fd5b505050505050565b6000808473ffffffffffffffffffffffffffffffffffffffff1663095ea7b360e01b8585604051602401611ad09291906128a8565b604051602081830303815290604052907bffffffffffffffffffffffffffffffffffffffffffffffffffffffff19166020820180517bffffffffffffffffffffffffffffffffffffffffffffffffffffffff8381831617835250505050604051611b3a9190612f69565b6000604051808303816000865af19150503d8060008114611b77576040519150601f19603f3d011682016040523d82523d6000602084013e611b7c565b606091505b5091509150818015611baa5750600081511480611ba9575080806020019051810190611ba89190612909565b5b5b611be9576040517f08c379a0000000000000000000000000000000000000000000000000000000008152600401611be090613038565b60405180910390fd5b5050505050565b60008060009054906101000a900473ffffffffffffffffffffffffffffffffffffffff169050816000806101000a81548173ffffffffffffffffffffffffffffffffffffffff021916908373ffffffffffffffffffffffffffffffffffffffff1602179055508173ffffffffffffffffffffffffffffffffffffffff168173ffffffffffffffffffffffffffffffffffffffff167f8be0079c531659141344cd1fd0a4f28419497f9722a3daafe3b4186f6b6457e060405160405180910390a35050565b828054611cc090613087565b90600052602060002090601f016020900481019282611ce25760008555611d29565b82601f10611cfb57805160ff1916838001178555611d29565b82800160010185558215611d29579182015b82811115611d28578251825591602001919060010190611d0d565b5b509050611d369190611d3a565b5090565b5b80821115611d53576000816000905550600101611d3b565b5090565b6000604051905090565b600080fd5b600080fd5b600080fd5b600080fd5b6000601f19601f8301169050919050565b7f4e487b7100000000000000000000000000000000000000000000000000000000600052604160045260246000fd5b611dbe82611d75565b810181811067ffffffffffffffff82111715611ddd57611ddc611d86565b5b80604052505050565b6000611df0611d57565b9050611dfc8282611db5565b919050565b600067ffffffffffffffff821115611e1c57611e1b611d86565b5b611e2582611d75565b9050602081019050919050565b82818337600083830152505050565b6000611e54611e4f84611e01565b611de6565b905082815260208101848484011115611e7057611e6f611d70565b5b611e7b848285611e32565b509392505050565b600082601f830112611e9857611e97611d6b565b5b8135611ea8848260208601611e41565b91505092915050565b600060208284031215611ec757611ec6611d61565b5b600082013567ffffffffffffffff811115611ee557611ee4611d66565b5b611ef184828501611e83565b91505092915050565b6000819050919050565b611f0d81611efa565b82525050565b6000602082019050611f286000830184611f04565b92915050565b600062ffffff82169050919050565b611f4681611f2e565b82525050565b6000602082019050611f616000830184611f3d565b92915050565b600067ffffffffffffffff821115611f8257611f81611d86565b5b602082029050602081019050919050565b600080fd5b6000611fab611fa684611f67565b611de6565b90508083825260208201905060208402830185811115611fce57611fcd611f93565b5b835b8181101561201557803567ffffffffffffffff811115611ff357611ff2611d6b565b5b8086016120008982611e83565b85526020850194505050602081019050611fd0565b5050509392505050565b600082601f83011261203457612033611d6b565b5b8135612044848260208601611f98565b91505092915050565b600067ffffffffffffffff82111561206857612067611d86565b5b602082029050602081019050919050565b600073ffffffffffffffffffffffffffffffffffffffff82169050919050565b60006120a482612079565b9050919050565b6120b481612099565b81146120bf57600080fd5b50565b6000813590506120d1816120ab565b92915050565b60006120ea6120e58461204d565b611de6565b9050808382526020820190506020840283018581111561210d5761210c611f93565b5b835b81811015612136578061212288826120c2565b84526020840193505060208101905061210f565b5050509392505050565b600082601f83011261215557612154611d6b565b5b81356121658482602086016120d7565b91505092915050565b6000806040838503121561218557612184611d61565b5b600083013567ffffffffffffffff8111156121a3576121a2611d66565b5b6121af8582860161201f565b925050602083013567ffffffffffffffff8111156121d0576121cf611d66565b5b6121dc85828601612140565b9150509250929050565b6000602082840312156121fc576121fb611d61565b5b600061220a848285016120c2565b91505092915050565b61221c81612099565b82525050565b60006020820190506122376000830184612213565b92915050565b61224681611efa565b811461225157600080fd5b50565b6000813590506122638161223d565b92915050565b600080604083850312156122805761227f611d61565b5b600083013567ffffffffffffffff81111561229e5761229d611d66565b5b6122aa85828601611e83565b92505060206122bb85828601612254565b9150509250929050565b6000806000606084860312156122de576122dd611d61565b5b600084013567ffffffffffffffff8111156122fc576122fb611d66565b5b61230886828701611e83565b935050602061231986828701612254565b925050604061232a868287016120c2565b9150509250925092565b60008060006060848603121561234d5761234c611d61565b5b600061235b86828701612254565b935050602084013567ffffffffffffffff81111561237c5761237b611d66565b5b61238886828701611e83565b925050604084013567ffffffffffffffff8111156123a9576123a8611d66565b5b6123b586828701611e83565b9150509250925092565b600080604083850312156123d6576123d5611d61565b5b60006123e4858286016120c2565b92505060206123f5858286016120c2565b9150509250929050565b6000806040838503121561241657612415611d61565b5b600061242485828601612254565b925050602083013567ffffffffffffffff81111561244557612444611d66565b5b61245185828601611e83565b9150509250929050565b60006040820190506124706000830185611f04565b61247d6020830184611f04565b9392505050565b600081519050919050565b600081905092915050565b60005b838110156124b857808201518184015260208101905061249d565b838111156124c7576000848401525b50505050565b60006124d882612484565b6124e2818561248f565b93506124f281856020860161249a565b80840191505092915050565b600061250a82846124cd565b915081905092915050565b600082825260208201905092915050565b7f4f776e61626c653a2063616c6c6572206973206e6f7420746865206f776e6572600082015250565b600061255c602083612515565b915061256782612526565b602082019050919050565b6000602082019050818103600083015261258b8161254f565b9050919050565b7f4e487b7100000000000000000000000000000000000000000000000000000000600052603260045260246000fd5b7f4e487b7100000000000000000000000000000000000000000000000000000000600052601160045260246000fd5b60006125fb82611efa565b91507fffffffffffffffffffffffffffffffffffffffffffffffffffffffffffffffff82141561262e5761262d6125c1565b5b600182019050919050565b600081519050919050565b600081905092915050565b6000819050602082019050919050565b61266881612099565b82525050565b600061267a838361265f565b60208301905092915050565b6000602082019050919050565b600061269e82612639565b6126a88185612644565b93506126b38361264f565b8060005b838110156126e45781516126cb888261266e565b97506126d683612686565b9250506001810190506126b7565b5085935050505092915050565b60006126fd8284612693565b915081905092915050565b600081519050919050565b600081905092915050565b6000819050602082019050919050565b600081905092915050565b600061274482612484565b61274e818561272e565b935061275e81856020860161249a565b61276781611d75565b840191505092915050565b600061277e8383612739565b905092915050565b6000602082019050919050565b600061279e82612708565b6127a88185612713565b93506127b38361271e565b8060005b838110156127e45781516127cb8882612772565b97506127d683612786565b9250506001810190506127b7565b5085935050505092915050565b60006127fd8284612793565b915081905092915050565b7f496e73756666696369656e742042616c616e6365000000000000000000000000600082015250565b600061283e601483612515565b915061284982612808565b602082019050919050565b6000602082019050818103600083015261286d81612831565b9050919050565b600061287f82611efa565b915061288a83611efa565b92508282101561289d5761289c6125c1565b5b828203905092915050565b60006040820190506128bd6000830185612213565b6128ca6020830184611f04565b9392505050565b60008115159050919050565b6128e6816128d1565b81146128f157600080fd5b50565b600081519050612903816128dd565b92915050565b60006020828403121561291f5761291e611d61565b5b600061292d848285016128f4565b91505092915050565b61293f81612099565b82525050565b61294e81611f2e565b82525050565b61295d81611efa565b82525050565b61296c81612079565b82525050565b610100820160008201516129896000850182612936565b50602082015161299c6020850182612936565b5060408201516129af6040850182612945565b5060608201516129c26060850182612936565b5060808201516129d56080850182612954565b5060a08201516129e860a0850182612954565b5060c08201516129fb60c0850182612954565b5060e0820151612a0e60e0850182612963565b50505050565b600061010082019050612a2a6000830184612972565b92915050565b600081519050612a3f8161223d565b92915050565b600060208284031215612a5b57612a5a611d61565b5b6000612a6984828501612a30565b91505092915050565b60008160011c9050919050565b6000808291508390505b6001851115612ac957808604811115612aa557612aa46125c1565b5b6001851615612ab45780820291505b8081029050612ac285612a72565b9450612a89565b94509492505050565b600082612ae25760019050612b9e565b81612af05760009050612b9e565b8160018114612b065760028114612b1057612b3f565b6001915050612b9e565b60ff841115612b2257612b216125c1565b5b8360020a915084821115612b3957612b386125c1565b5b50612b9e565b5060208310610133831016604e8410600b8410161715612b745782820a905083811115612b6f57612b6e6125c1565b5b612b9e565b612b818484846001612a7f565b92509050818404811115612b9857612b976125c1565b5b81810290505b9392505050565b6000612bb082611efa565b9150612bbb83611efa565b9250612be87fffffffffffffffffffffffffffffffffffffffffffffffffffffffffffffffff8484612ad2565b905092915050565b6000612bfb82611efa565b9150612c0683611efa565b9250817fffffffffffffffffffffffffffffffffffffffffffffffffffffffffffffffff0483118215151615612c3f57612c3e6125c1565b5b828202905092915050565b7f4e487b7100000000000000000000000000000000000000000000000000000000600052601260045260246000fd5b6000612c8482611efa565b9150612c8f83611efa565b925082612c9f57612c9e612c4a565b5b828204905092915050565b6000612cb582611efa565b9150612cc083611efa565b9250827fffffffffffffffffffffffffffffffffffffffffffffffffffffffffffffffff03821115612cf557612cf46125c1565b5b828201905092915050565b6000606082019050612d156000830186612213565b612d226020830185612213565b612d2f6040830184611f04565b949350505050565b600069ffffffffffffffffffff82169050919050565b612d5681612d37565b8114612d6157600080fd5b50565b600081519050612d7381612d4d565b92915050565b6000819050919050565b612d8c81612d79565b8114612d9757600080fd5b50565b600081519050612da981612d83565b92915050565b600080600080600060a08688031215612dcb57612dca611d61565b5b6000612dd988828901612d64565b9550506020612dea88828901612d9a565b9450506040612dfb88828901612a30565b9350506060612e0c88828901612a30565b9250506080612e1d88828901612d64565b9150509295509295909350565b600060ff82169050919050565b612e4081612e2a565b8114612e4b57600080fd5b50565b600081519050612e5d81612e37565b92915050565b600060208284031215612e7957612e78611d61565b5b6000612e8784828501612e4e565b91505092915050565b7f4f776e61626c653a206e6577206f776e657220697320746865207a65726f206160008201527f6464726573730000000000000000000000000000000000000000000000000000602082015250565b6000612eec602683612515565b9150612ef782612e90565b604082019050919050565b60006020820190508181036000830152612f1b81612edf565b9050919050565b600081519050919050565b600081905092915050565b6000612f4382612f22565b612f4d8185612f2d565b9350612f5d81856020860161249a565b80840191505092915050565b6000612f758284612f38565b915081905092915050565b7f5354460000000000000000000000000000000000000000000000000000000000600082015250565b6000612fb6600383612515565b9150612fc182612f80565b602082019050919050565b60006020820190508181036000830152612fe581612fa9565b9050919050565b7f5341000000000000000000000000000000000000000000000000000000000000600082015250565b6000613022600283612515565b915061302d82612fec565b602082019050919050565b6000602082019050818103600083015261305181613015565b9050919050565b7f4e487b7100000000000000000000000000000000000000000000000000000000600052602260045260246000fd5b6000600282049050600182168061309f57607f821691505b602082108114156130b3576130b2613058565b5b5091905056fea2646970667358221220bcd020a13e3802269904096b988e7cff631733f4b99b46016da13b0c7707442c64736f6c634300080a0033",
  "immutableReferences": {
    "1009": [
      {
        "length": 32,
        "start": 3494
      },
      {
        "length": 32,
        "start": 3825
      }
    ]
  },
  "source": "// SPDX-License-Identifier: MIT\npragma solidity ^0.8.0;\npragma abicoder v2;\n\nimport \"./Bank.sol\";\n\ncontract TokenSwap is Bank {\n  // For the scope of these swap examples,\n  // we will detail the design considerations when using\n  // `exactInput`, `exactInputSingle`, `exactOutput`, and  `exactOutputSingle`.\n\n  // It should be noted that for the sake of these examples, we purposefully pass in the swap router instead of inherit the swap router for simplicity.\n  // More advanced example contracts will detail how to inherit the swap router safely.\n\n  \n\n  // This example swaps DAI/WETH9 for single path swaps and DAI/USDC/WETH9 for multi path swaps.\n\n\n  ISwapRouter immutable swapRouter;\n  \n  constructor(ISwapRouter _swapRouter, string[] memory tokenNames, address[] memory tokenAddresses) {\n    require(tokenNames.length==tokenAddresses.length);\n    for (uint i=0; i<tokenNames.length; i++){\n      string memory tokenName=tokenNames[i];\n      address tokenAddress=tokenAddresses[i];\n      allowedTokens[tokenName]=tokenAddress;\n      allowedTokensList.push(tokenAddress);\n      allowedTokenNamesList.push(tokenName);\n    }\n    swapRouter = _swapRouter;\n  }\n\n  // For this example, we will set the pool fee to 0.3%.\n  uint24 public constant poolFee = 3000;\n\n  /// @notice swapExactInputSingle swaps a fixed amount of DAI for a maximum possible amount of WETH9\n  /// using the DAI/WETH9 0.3% pool by calling `exactInputSingle` in the swap router.\n  /// @dev The calling address must approve this contract to spend at least `amountIn` worth of its DAI for this function to succeed.\n  /// @param amountIn The exact amount of DAI that will be swapped for WETH9.\n  /// @return amountOut The amount of WETH9 received.\n  function swapExactInputSingle(uint256 amountIn, string memory inputToken, string memory outputToken) external returns (uint256 amountOut) {\n    \n    // msg.sender must approve this contract\n    IERC20(allowedTokens[inputToken]).approve(address(this), amountIn);\n\n    // Transfer the specified amount of DAI to this contract.\n    TransferHelper.safeTransferFrom(allowedTokens[inputToken], msg.sender, address(this), amountIn);\n\n    // Approve the router to spend DAI.\n    TransferHelper.safeApprove(allowedTokens[inputToken], address(swapRouter), amountIn);\n\n    // Naively set amountOutMinimum to 0. In production, use an oracle or other data source to choose a safer value for amountOutMinimum.\n    // We also set the sqrtPriceLimitx96 to be 0 to ensure we swap our exact input amount.\n    ISwapRouter.ExactInputSingleParams memory params =\n      ISwapRouter.ExactInputSingleParams({\n          tokenIn: allowedTokens[inputToken],\n          tokenOut: allowedTokens[outputToken],\n          fee: poolFee,\n          recipient: msg.sender,\n          deadline: block.timestamp,\n          amountIn: amountIn,\n          amountOutMinimum: convertInput2Output(amountIn, inputToken, outputToken),\n          sqrtPriceLimitX96: 0\n      });\n\n      // The call to `exactInputSingle` executes the swap.\n      amountOut = swapRouter.exactInputSingle(params);\n  }\n}",
  "sourcePath": "/Users/nerdjango/Documents/GitHub/Tibraun-Defi/contracts/TokenSwap.sol",
  "compiler": {
    "name": "solc",
    "version": "0.8.10+commit.fc410830.Emscripten.clang"
  },
  "schemaVersion": "3.4.3",
  "updatedAt": "2021-12-12T09:43:35.217Z",
  "networkType": "ethereum",
  "devdoc": {
    "kind": "dev",
    "methods": {
      "owner()": {
        "details": "Returns the address of the current owner."
      },
      "renounceOwnership()": {
        "details": "Leaves the contract without owner. It will not be possible to call `onlyOwner` functions anymore. Can only be called by the current owner. NOTE: Renouncing ownership will leave the contract without an owner, thereby removing any functionality that is only available to the owner."
      },
      "swapExactInputSingle(uint256,string,string)": {
        "details": "The calling address must approve this contract to spend at least `amountIn` worth of its DAI for this function to succeed.",
        "params": {
          "amountIn": "The exact amount of DAI that will be swapped for WETH9."
        },
        "returns": {
          "amountOut": "The amount of WETH9 received."
        }
      },
      "transferOwnership(address)": {
        "details": "Transfers ownership of the contract to a new account (`newOwner`). Can only be called by the current owner."
      }
    },
    "version": 1
  },
  "userdoc": {
    "kind": "user",
    "methods": {
      "swapExactInputSingle(uint256,string,string)": {
        "notice": "swapExactInputSingle swaps a fixed amount of DAI for a maximum possible amount of WETH9 using the DAI/WETH9 0.3% pool by calling `exactInputSingle` in the swap router."
      }
    },
    "version": 1
  }
}